:020000040800F2
:1000000068460020450100084B0D0008090A000859
:10001000E10C000805050008312700080000000079
:10002000000000000000000000000000E9210008BE
:100030004707000800000000EB0100084D19000808
:100040005F0100085F0100085F0100085F01000810
:100050005F0100085F0100085F0100085F01000800
:100060005F0100085F0100085F0100085F010008F0
:100070005F0100085F0100085F0100085F010008E0
:100080005F0100085F0100085F0100085F010008D0
:100090005F0100085F0100085F0100085F010008C0
:1000A0005F0100085F0100085F0100085F010008B0
:1000B0005F0100085F0100085F0100085F010008A0
:1000C0005F0100085F0100085F0100085F01000890
:1000D0005F01000831230008412300085123000874
:1000E0005F0100085F0100085F0100085F01000870
:1000F0005F0100085F0100085F0100085F01000860
:100100005F0100085F0100085F0100085F0100084F
:100110005F0100085F0100085F0100085F0100083F
:100120005F0100085F0100085F0100085F0100082F
:10013000DFF80CD000F0A2F800480047152F0008A7
:10014000684600200648804706480047FEE7FEE76D
:10015000FEE7FEE7FEE7FEE7FEE7FEE7FEE7FEE777
:10016000D12200083101000872B6704762B67047AC
:10017000EFF3108072B6704780F31088704730BF7D
:10018000704720BF7047B0FA80F0704790FAA0F037
:10019000B0FA80F0704790FAA0F07047EFF310804B
:1001A00072B6704780F31088704720484FF0FF0107
:1001B0000170002080F3098801F0BAFA1C48016838
:1001C00081F308881B48012101701B484FF08051C2
:1001D000016062B6FEE718484FF080510160704739
:1001E00015484FF080510160704772B6EFF30980F7
:1001F00028B1203880E8F00F10490968086000B580
:100200000F4880475DF804EB0E480F490A780270EA
:100210000A480E490A680260106890E8F00F203022
:1002200080F309884EF0040E62B6704722ED00E0BC
:10023000880000206A00002004ED00E0700000202B
:10024000311700085F0000206000002078000020C7
:1002500030B50B46014600202022012409E021FA96
:1002600002F59D4205D303FA02F5491B04FA02F593
:100270002844151EA2F10102F1DC30BD064C074DE9
:1002800006E0E06840F0010394E807009847103466
:10029000AC42F6D3FFF750FFE03000080031000811
:1002A00009E0042002F0D8FD4FF4FA730022114651
:1002B000104601F07DFAF4E700B587B0002000F0A9
:1002C0009DFE2B490860032000214FF48072294BCA
:1002D000CDE90132CDE9031002200346264A009001
:1002E000264800F0BDFF06AA25A1022001F0D6F89D
:1002F000032000214FF48072254BCDE90132CDE976
:1003000003103C200346234A0090234800F0A8FF36
:1003100006AA22A13C2001F0C1F8032000214FF4DD
:1003200080721F4BCDE90310CDE9013200900346E6
:100330001C4A1D4800F094FF06AA1CA1032001F0EE
:10034000ADF8032000214FF48072194BCDE9013242
:10035000CDE9031001200346164A0090164800F02C
:100360007FFF06AA15A1012001F098F807B000BD93
:1003700000000020900400208C08002035040008B4
:100380005573657220496E7465726661636500001D
:10039000900800208C0C0020F50300084C45440018
:1003A000900C00208C100020A1020008434F4D004B
:1003B000901000208C140020C50300084B65795371
:1003C00063616E0008B512E002F01CFD02F0E0FB74
:1003D0000446002C05DD009469460548006800F0DD
:1003E000C1FE0A2300221146104601F0E1F9EBE7B5
:1003F0000000002009E0022002F02EFD4FF4FA7305
:1004000000221146104601F0D3F9F4E702F0DAFBBE
:1004100000F07AF800F03CF800F0F6FEFFF74CFF31
:1004200006E04FF4FA7300221146104601F0C0F9BD
:10043000F7E7000008B517E06A464FF47A710B48F9
:10044000006800F005FE04789DF8000048B9012C12
:1004500002D100F079F907E0042C05D101F0F6FD96
:1004600002E0032002F0F8FCE6E7000000000020B4
:1004700070477047704770477047704770477047C4
:1004800000B585B0684601F021FE019805B000BDB9
:100490002DE9F041FFF7F4FF04464FF47A70B4FB06
:1004A000F0F5154800684FF47A72B0FBF2F1B1F143
:1004B000807F00D31DE021F07F40401E4FF0E022FE
:1004C000506150170F22002807DA13071F0E0B4B3D
:1004D00000F00F06361F9F5503E013071E0E084B52
:1004E0001E5400BF00204FF0E022906107201061F1
:1004F00000BFBDE8F08100001800002018ED00E00A
:1005000000E400E000BFFEE710B500F0ABF800F03B
:1005100003F800F0A3F810BD70B5002600201849BC
:100520000880184908801849086018490860184967
:1005300008601849086018490860002400BFFFF7E8
:1005400017FE064600BF00250BE00020104908609A
:1005500000F024F800F03CF80D4800680444681CE2
:1005600085B2002DF1D00C480460002008490860D5
:100570000849086000BF3046FFF7FEFD00BF70BDB0
:10058000300000203200002034000020380000201D
:1005900040000020440000203C00002010B5094825
:1005A0000088401C074908800748008818B900F0F7
:1005B00083F80649086004480088401C0249088006
:1005C00010BD000030000020320000203400002068
:1005D00010B50F480088401E0D4908800846008865
:1005E000A0B900F069F80B490860084600680A499C
:1005F0000968441A09480068A04201D2074804600B
:1006000007480068A04201D20548046010BD000000
:10061000320000203800002034000020400000207C
:100620004400002010B5002400BF00BFFFF7A0FD6C
:10063000044600BFFFF7B2FF00BF1021064800F0DC
:1006400051FB00BFFFF7C4FF00BF2046FFF794FD3A
:1006500000BF00BF10BD0000882D002010B5FFF7BF
:10066000E1FF10BD10B500200249086000F00AF853
:1006700010BD00002C0000200149086070470000F8
:100680002C00002010B5FFF7FBFE04460848006868
:1006900040F080700649086000200649486008461E
:1006A000006840F0010008602046FFF7E5FF10BD3C
:1006B000FCED00E0001000E00149486870470000D0
:1006C000001000E0014609B909487047012901D12D
:1006D0000848FAE7022901D10748F6E7032901D1C2
:1006E0000020F2E7042901D10020EEE70020ECE72A
:1006F00010150020381D00206025002008B5252099
:100700008DF8000000208DF8020001208DF8030014
:10071000684600F01BFB26208DF8000001208DF8B4
:1007200002008DF80300684600F010FB27208DF8CA
:10073000000002208DF8020001208DF803006846B9
:1007400000F004FB08BD70477FB5144C14A001F005
:10075000F1FF21A001F0EEFF2BA001F0EBFF0A203A
:1007600000F0EAFF16E004F11804A07D02A900F0F1
:10077000E1FEDDE90210014464225043B0FBF1F5D3
:10078000206BCDE90050A17D2BA0DDE9023201F004
:10079000D1FF2468002CE6D17FBD00008833002003
:1007A0003D3D3D3D3D3D3D3D3D3D3D3D3D3D3D3D79
:1007B0003D3D3D3D3D3D3D3D3D3D3D3D3D3D3D3D69
:1007C0003D3D3D3D3D3D3D3D3D3D3D3D3D3D3D3D59
:1007D0003D3D0D0A000000002020D3C5CFC8BCB6A7
:1007E000202020CAB9D3C3D5BB2020CAA3D3E0D5CB
:1007F000BB2020B0D9B7D6B1C8202020C8CECEF1BA
:10080000C3FB0D0A0000000020205072696F2020F9
:1008100020202055736564202020204672656520C5
:100820002020205065722020202020205461736BEE
:100830006E616D650D0A00002020202532642020A5
:1008400020202535642020202025356420202020EC
:10085000253032642525202020202025730D0A0014
:10086000002123498279002A3AD00A461268036897
:100870009A430B461A600A1D126803689A430B1DBF
:100880001A60027911440A6803681A430A60184A18
:100890000832126803689A43154B08331A601A1D10
:1008A000126803689A43124B0C331A604279102A7B
:1008B0000ED11A1F126803681A430D4B08331A60D1
:1008C0001A1D126803681A43094B0C331A600DE0B5
:1008D0000749427911440A6803681A430A6005E02F
:1008E000027911440A6803689A430A60704700005D
:1008F000000401402DE9F0410246002500260020B9
:1009000000230024002791F803C00CF00F0591F894
:1009100003C01CF0100F03D091F802C04CEA05058B
:1009200091F800C0BCF1000F31D0146800202BE01A
:100930004FF0010C0CFA00F3B1F800C00CEA03060A
:100940009E4220D183004FF00F0C0CFA03F7BC43FA
:1009500005FA03FC4CEA040491F803C0BCF1280F2B
:1009600006D14FF0010C0CFA00FCC2F814C00AE0EA
:1009700091F803C0BCF1480F05D14FF0010C0CFAFF
:1009800000FCC2F810C0401C0828D1D31460B1F894
:1009900000C0BCF1FF0F34DD546800202EE000F1F0
:1009A000080C4FF0010808FA0CF3B1F800C00CEA8B
:1009B00003069E4221D183004FF00F0C0CFA03F77F
:1009C000BC4305FA03FC4CEA040491F803C0BCF1F3
:1009D000280F05D100F1080C08FA0CF8C2F81480B1
:1009E00091F803C0BCF1480F07D100F1080C4FF09B
:1009F000010808FA0CF8C2F81080401C0828CED371
:100A00005460BDE8F081000009A100200BE00A5C01
:100A1000124B1A8000BF114A121F128812F0400FA9
:100A2000F9D0421CD0B22A28F1D300BFFEE7000063
:100A30000D0A456E74657220486172644661756C7A
:100A4000745F48616E646C65722C205379737465B1
:100A50006D2048616C742E0D0A00000004380140BE
:100A600000B585B00121052001F020FB012188039C
:100A700001F01CFB4FF40070ADF8100018208DF849
:100A8000130003208DF8120004A96648FFF732FF17
:100A90004FF48060ADF8100004208DF8130004A915
:100AA0006048FFF727FF4FF4E13000900020ADF8D9
:100AB0000400ADF80600ADF80800ADF80C000C20FD
:100AC000ADF80A006946584801F0AEFC012240F238
:100AD0002551554801F083FC0121534801F049FCA0
:100AE0004021514801F03CFC0121052001F0DEFAD3
:100AF0000121480401F0CAFA0420ADF810001820C2
:100B00008DF8130003208DF8120004A94548FFF763
:100B1000F1FE0820ADF8100004208DF8130004A9A0
:100B20004048FFF7E7FE04A93E48FFF7E3FE4FF415
:100B3000E13000900020ADF80400ADF80600ADF8FB
:100B40000800ADF80C000C20ADF80A0069463748E3
:100B500001F06AFC012240F22551344801F03FFCCB
:100B60000121324801F005FC4021304801F0F8FB3A
:100B70000121082001F09AFA10208DF813000320BB
:100B80008DF812000420ADF8100004A92848FFF7E2
:100B9000B1FE0121092001F089FA0121880401F048
:100BA00075FA4FF48060ADF8100018208DF813002E
:100BB00003208DF8120004A91D48FFF79BFE4FF497
:100BC0000060ADF8100004208DF8130004A9184847
:100BD000FFF790FE04A91648FFF78CFE4FF416505D
:100BE00000900020ADF80400ADF80600ADF8080054
:100BF000ADF80C000C20ADF80A0069460D4801F074
:100C000013FC012240F225510A4801F0E8FB0121C2
:100C1000084801F0AEFB4021064801F0A1FB05B0F9
:100C200000BD0000000801400038014000440040C1
:100C3000000C0140004800400448806810F4005F48
:100C400001D1012070470020FCE7000000100140A6
:100C50000448806810F4807F01D101207047002093
:100C6000FCE70000002001400448806810F4004FB9
:100C700001D1012070470020FCE700000020014066
:100C80000448006810F0080F01D1012070470020CF
:100C9000FCE70000081401400448806810F4804F0D
:100CA00001D1012070470020FCE700000020014036
:100CB0000448806810F4005F01D1012070470020D3
:100CC000FCE70000002001400448806810F0800F1D
:100CD00001D1012070470020FCE700000020014006
:100CE00000BFFEE730B505460C46224600212846E7
:100CF00000F001F830BD2DE9F04105460B46944661
:100D00000027002402E03F021F43641C042CFAD396
:100D1000604605F00306294646B1344603E001F873
:100D2000013B401E641C08B1042CF8D30A4601E0C4
:100D300080C2001F0428FBD2114602E001F8013BEB
:100D4000401E0028FAD1BDE8F081704770B500213F
:100D500000230F22C4780CB3164C246804F4E0641A
:100D6000C4F5E064210AC1F10403CA40447804FADE
:100D700003F184781440214309010F4C0678A155F2
:100D8000047804F01F050124AC4005786D114FF084
:100D9000E02606EB8505C5F8004109E0047804F07B
:100DA0001F050124AC40054D0678761145F8264014
:100DB00070BD00000CED00E000E400E080E100E028
:100DC00002490143024A1160704700000000FA0521
:100DD0000CED00E0174818481848194819481A48F7
:100DE0001A481B481B481C481C481D481D481E48E3
:100DF0001E481F481F4820482048214821482248B3
:100E00002248234823482448244825482548264882
:100E100026482748274828482848294829482A4852
:100E20002A482B482B482C482C482D482D482E4822
:100E300000BF70476C300008703000087630000842
:100E400078300008743000087A3000087C300008E0
:100E50007E300008803000088230000884300008AE
:100E600086300008883000088A3000088C3000087E
:100E70008E3000089030000892300008943000084E
:100E800096300008983000089A3000089C3000081E
:100E90009E300008A0300008A2300008A4300008EE
:100EA000A6300008A8300008AA300008AC300008BE
:100EB000AE300008B0300008B2300008B43000088E
:100EC000B6300008B8300008BA300008BC3000085E
:100ED000BE300008C0300008C2300008C43000082E
:100EE000C6300008C8300008DC30000810B500F03B
:100EF00011F800F037FE00F063FE00F083FE00F012
:100F000001FE00F0B9FE00F0DFFE00F01BF8FFF775
:100F100061FF10BD08484FF4007102E0491E002235
:100F200004C00029FAD1054A054B1A601A46126816
:100F300022F007021A607047683A002068420020D9
:100F4000880000207047000006480078012808D17A
:100F500005480078FF2804D203480078401C024965
:100F6000087070476A0000205D00002010B5002462
:100F70001A480078012830D1FFF710F904461848C4
:100F8000007820B116480078401E154908701448B2
:100F90000078F8B913480078E0B900F001FF124872
:100FA0001249097850F82100114908600F4800786B
:100FB0001049097888420DD00D480068406B401CEC
:100FC0000B49096848630C480068401C0A490860DE
:100FD000FFF706F92046FFF7E5F810BD6A0000208C
:100FE0005D0000205E0000208832002060000020AC
:100FF000780000205F0000204800002070B5054602
:1010000000261048007808B1002070BDFFF7C6F830
:1010100006460D480468006820B10B480068406827
:10102000094908603046FFF7BDF84CB10120207037
:1010300000202081656005A06061204600F054FD1D
:101040002046E2E75D0000204C0000203F00000049
:101050002DE9F04105460F4614464FF0000825B92A
:10106000042020700020BDE8F0812878012803D0FA
:10107000012020700020F6E73748007818B10220E0
:1010800020700020EFE73548007818B10D2020705F
:101090000020E8E7FFF782F880466E6846B100203E
:1010A00068604046FFF77EF8002020703046DAE79F
:1010B0002B48006890F82C0040F00200284909688D
:1010C00081F82C0000202649096881F82D00244869
:1010D00000688762284600F0C9FC4046FFF762F8C6
:1010E00000F024FEFFF75AF880461D48006890F88B
:1010F0002D0020B101280DD002280AD105E01848A2
:101100000068466A002020700DE000260E20207046
:1011100009E000BF29461248006800F071FC002673
:101120000A20207000BF00BF00200D49096881F827
:101130002C000B49096881F82D0009490968C8612C
:101140000749096808620649096848624046FFF78E
:1011500029F8304687E700005D0000205E0000208F
:101160007000002070B504460D4600260CB904201E
:1011700070BD0DB90320FBE72078012801D00120C4
:10118000F6E7FFF70BF80646A07A60B100230222CB
:101190002946204600F0EAFB3046FFF703F800F04E
:1011A000C5FD0020E4E7606820B13046FEF7FAFF95
:1011B0001420DDE765603046FEF7F4FF0020D7E736
:1011C00010B50B48007890B900F0EAFD09480078A6
:1011D0000949087009480749097850F82100084969
:1011E00008600846006807490860FEF7DEFF10BD8A
:1011F0006A000020600000205F000020883200208C
:10120000780000207000002010B50024022000F0BB
:1012100093FAFEF7C3FF044600200B4908602046FE
:10122000FEF7C0FF642000F087FAFEF7B7FF044620
:1012300005480068054908600120054908702046F6
:10124000FEF7B0FF10BD00006C000020540000202D
:101250005C00002010B504462046FFF709F910BDD8
:101260002DE9F04F85B081468A4693461C46DDE95C
:101270000F78129D002003903F2C03D92A2005B03F
:10128000BDE8F08FFEF78AFF03902248007820B176
:101290000398FEF787FF3C20F1E71F4850F8240031
:1012A00088BB01201C4941F824000398FEF77AFF0F
:1012B0002A464146384600F0BBFE2B465A46514668
:1012C000484600F085F904901198CDE90080029518
:1012D0003A4620460E9B049900F078FD064636B942
:1012E0000E48007801280CD100F020FD09E0FEF73F
:1012F00055FF03900020084941F824000398FEF7A9
:1013000051FF3046BBE7FFE70398FEF74BFF28206D
:10131000B5E700005D000020883200206A00002050
:1013200010B504462046FFF7A4F810BD70B5054679
:1013300000264A48007808B1402070BD3F2D01D1F9
:101340003E20FAE73F2D03D3FF2D01D02A20F4E7FA
:10135000FEF724FF0646FF2D03D14148006890F8B0
:101360002E50404850F8254024B93046FEF71AFF69
:101370004320E2E7012C04D13046FEF713FF3D2065
:10138000DBE714F8300F3849085C6178884321782E
:10139000354A505414F830091146085C30B994F8B5
:1013A000321032480078884330490870E06918B13B
:1013B0002046E16900F024FB206A18B12046216A2A
:1013C00000F035FB0020A06284F82C0084F82D008A
:1013D00027480078FF2804D225480078401C24497B
:1013E00008703046FEF7DEFE00F0BEFAFEF7D6FECD
:1013F00006461F48007820B11D480078401E1C4951
:101400000870204600F040F81A480078401E19493C
:1014100008700020134941F82500A06930B9002068
:101420006169886114496069086005E0D4E90501D3
:101430004861D4E9051088611048006860610F4870
:1014400004600FA0A0643046FEF7ACFE0D480078A3
:10145000012801D100F06AFC00206EE75D00002049
:10146000700000208832002062000020610000200F
:101470005E0000206B0000207C0000207400002033
:101480003F0000006A00002010B504462046FEF729
:10149000F1FF10BD10B5FEF7EEFF10BD2DE9F041D4
:1014A00005460F4614464FF000083F2D05D9FF2D85
:1014B00003D02A202070BDE8F08117B90C202070DD
:1014C000F9E71448007810B112202070F3E7FEF716
:1014D00065FE8046FF2D03D10F48006890F82E501E
:1014E0000E4850F825602EB94046FEF75BFE4320BB
:1014F0002070E0E7012E05D14046FEF753FE432061
:101500002070D8E7B7644046FEF74CFE00202070FC
:1015100000BFD0E75D00002070000020883200206E
:1015200010B504462046FEF7A7FF10BD10B5FEF724
:10153000A4FF10BD2DE9F04706460C464FF0000A07
:101540003F2E04D9FF2E02D02A20BDE8F0870CB927
:101550000920FAE7002020606060FEF71FFE824647
:10156000FF2E03D11848006890F82E60174850F8F5
:10157000265025B95046FEF715FE4320E5E7012D1C
:1015800004D15046FEF70EFE4320DEE7287C10F023
:10159000010F04D15046FEF705FE4520D5E7002790
:1015A000D5F80C90D5F808805046FEF7FBFD00E01A
:1015B0007F1C58F8041B0029FAD02760A9EB07000C
:1015C00060600020C1E70000700000208832002029
:1015D00070B50446101D20F007004FF08076051FFF
:1015E00028462E60051F28462C60214E051F2846E0
:1015F0002E604FF01236051F28462E604FF003363E
:10160000051F28462E604FF00236051F28462E6023
:101610007610051F28462E60051F284629604FF0CA
:101620001136051F28462E604FF01036051F28463C
:101630002E604FF00936051F28462E604FF0083601
:10164000051F28462E604FF00736051F28462E60DE
:101650004FF00636051F28462E604FF00536051F51
:1016600028462E604FF00436051F28462E6070BDB8
:101670003D1F00082DE9F04105464FF000083F2DC1
:1016800002D14720BDE8F0813F2D03D3FF2D01D0CB
:101690002A20F7E7FEF782FD8046FF2D05D120487E
:1016A000006890F82E50012608E01D48006890F868
:1016B0002E00A84201D1012600E00026194850F86A
:1016C000254024B94046FEF76DFD4820DAE7012C9D
:1016D00004D14046FEF766FD4320D3E794F830700E
:1016E0001148C05D94F8311088430F49C855084629
:1016F000C05D30B994F832100C48007888430B492B
:10170000087094F82C0040F0080084F82C00404643
:10171000FEF748FD012E01D100F008FB0020B1E7E3
:10172000700000208832002062000020610000204C
:1017300010B5FEF7A3FE10BD70B50546002617488C
:10174000007800B170BD1648007800B1FAE71DB30B
:10175000FEF724FD06461348006890F83040124812
:10176000005D1049096891F8311088430E49085509
:101770000846005D40B90B48006890F832100B48ED
:101780000078884309490870064800688562304639
:10179000FEF708FD00F0CAFA00BFD3E75D000020A5
:1017A0005E00002070000020620000206100002028
:1017B0002DE9F04107460D4616461C461B480078A9
:1017C00010B15520BDE8F0811948007808B13220E9
:1017D000F8E727B91DB916B90CB95420F2E73B2D2B
:1017E00001D95120EEE73B2E01D95220EAE7B4F5AA
:1017F0007A7F01D35320E5E74FF47A7060434FF4CA
:101800007A71B0FBF1F14FF461607843C5EB0512DA
:1018100000EB8200304400EB4002C2EBC01001EB51
:10182000C0084046FFF788FF0020CBE75D0000209E
:101830005E00002070B504460025FEF7AFFC0546AB
:10184000024804602846FEF7ADFC70BD840000200D
:1018500070B5002600F076F8FEF7A0FC0646334887
:101860000068401C314908603046FEF79BFC304858
:101870000078012857D12F48007820B1012804D0E2
:10188000022809D103E001250BE0002509E001252C
:1018900001202849087004E001250020254908702E
:1018A00000BF00BF05B970BD2348046837E0FEF7EC
:1018B00075FC0646A06A70B3A06A401EA062A06ACA
:1018C00048BB94F82C0010F0370F09D014F82C0FF7
:1018D00000F0C800207001206070A4F12C0402E028
:1018E000002084F82D0094F82C0010F0080F12D17D
:1018F00004F13004A0781149097840EA01000F4949
:10190000087020780E49085C617840EA010014F8FC
:1019100030190B4A505464693046FEF743FC94F882
:101920002E003F28C3D100BFBDE700008400002087
:101930006A000020800000207C0000206100002060
:101940006200002010B5FEF79AFD10BD10B5FEF73D
:1019500025FC0446FFF7F8FA2046FEF723FCFFF7C4
:1019600077FFFFF703FB10BD704700002DE9F04F34
:1019700005460F4690469946A87A1D490E5C05F12A
:101980000B00805D11F800B00BEBC60000F0FF0A01
:10199000184850F82A40002004F1240460602760B1
:1019A000207A20EA0800207284F80990207AA4F1B5
:1019B000240410F0080F0DD194F832000E49097874
:1019C00008430D4908700D48805D94F831100843B4
:1019D0000A4988552946204600F012F8206A20B1AD
:1019E0002046216A00F023F8E5615046BDE8F08FFB
:1019F0006C2F000888320020610000206200002067
:101A000010B590F8302001F10B039B5C90F8314049
:101A1000A34301F10B04A35423469B5C23B98B7AA7
:101A200090F83240A3438B720023C36110BDF0B520
:101A3000024612F8304F95785678A2F130020B46E4
:101A400018680FE000F10B073F5DB74300F10B0C86
:101A50000CF8047067463F5D17B9877AAF43877209
:101A60001B1D18680028EDD1F0BD000010B51B4A01
:101A70001268D061194A126892F8303000F10B02F6
:101A8000D25C164B1B6893F831301A43134B1B681A
:101A900093F8304000F10B031A55827A0F4B1B6804
:101AA00093F832301A4382720C4A126892F830105E
:101AB0000B4A525C094B1B6893F831309A43084B30
:101AC0005A541A46525C42B9044A126892F83230AB
:101AD000044A12789A43034B1A7010BD700000201C
:101AE0006200002061000020014600228A7200206E
:101AF00005E0002301F10B021354421CD0B2082868
:101B0000F7D3704770B5F021134800F005F90024B1
:101B100011E0601C85B204EB44000F4901EBC003E7
:101B200005EB450001EBC006002018705E600BA0BD
:101B30005861601C84B2092CEBD304EB44000649C5
:101B400001EBC00300201870586004A058610846DB
:101B50000349086070BD0000982D00203F00000080
:101B60004C00002000200B4908600B4908700B490D
:101B700008700B4908700B4908700B4908600B4945
:101B800008600B4908600B4908600B4908700B4955
:101B900008707047840000205D0000205E00002077
:101BA0006B0000206A000020480000206C0000202C
:101BB00058000020540000205C000020810000201C
:101BC00000210A4A1170002004E00021084A115443
:101BD000411CC8B20828F8D30021064A1170064AF1
:101BE0001170064A1160064A1160704761000020BA
:101BF000620000205F0000206000002078000020CC
:101C00007000002070B54FF4DC61164800F084F8D5
:101C10004FF48071144800F07FF800230FE0581C47
:101C2000C5B203EB83000F4901EB001405EB8500FF
:101C300001EB001666610DA0A064581CC3B2152B01
:101C4000EDD303EB8300074901EB00140020606132
:101C500006A0A06400200649086002480549086003
:101C600070BD000088330020883200203F00000053
:101C70007C0000207400002000B587B00320002104
:101C800080220A4BCDE90132CDE903104FF6FF70F7
:101C90003F23074A00900748FFF7E2FA06AA06A189
:101CA0003F20FFF7FBFB07B000BD0000883000209D
:101CB00084320020151F000875432F4F532D4949CA
:101CC0002049646C6500000000B587B00320002146
:101CD00080220A4BCDE90132CDE903104FF6FE70A8
:101CE0003E23074A00900748FFF7BAFA06AA06A162
:101CF0003E20FFF7D3FB07B000BD0000882E002078
:101D000084300020551F000875432F4F532D49493B
:101D1000205374617400000004E0002200F8012BDD
:101D20004A1E91B20029F8D17047000010B5002476
:101D3000FEF734FA044613480078F8B912480078E0
:101D4000E0B900F02DF811481149097850F8210048
:101D5000104908600E4800780F49097888420DD074
:101D60000C480068406B401C0A49096848630B48EE
:101D70000068401C09490860FEF72DFA2046FEF76E
:101D800011FA10BD5D0000205E00002088320020A6
:101D900060000020780000205F0000204800002044
:101DA0000649074A1278885C0649095C034A515C77
:101DB00001EBC001044A1170704700006C2F00084D
:101DC0006100002062000020600000202DE9F84F33
:101DD00005460F4690469946DDE90AAB0020009083
:101DE000FEF7DCF9009044480468002C7FD054F8DA
:101DF000140F414908600098FEF7D4F944F8147CA8
:101E0000A576002020766076606144F810BC44F826
:101E100008AC44F80C8C0C9824F8040C24F8029CB0
:101E20000020E077E810207705F00700E076217FBA
:101E300001208840A077E17E012088406077002063
:101E4000A060E06020612062A0626062E0622063C6
:101E50002AA06063A4F114044FF0000606E00021FC
:101E600004F14C0040F82610701CC6B2002EF6D0CB
:101E70002046FFF7EFF9FEF791F90090204840F86F
:101E800025400098FEF78EF92046FFF749FAFEF745
:101E900085F900901B48006860610020A061194826
:101EA000006810B11748006884611648046004F1A6
:101EB0003004A0781449097840EA010012490870FA
:101EC00020781249085C617840EA010014F8301962
:101ED0000E4A50540E48007800F101000C49087079
:101EE0000098FEF75FF90020BDE8F88FFFE7009843
:101EF000FEF758F94220F7E7740000203F00000089
:101F0000883200207C000020610000206200002058
:101F10006B000020002400BF00BFFEF73FF904461D
:101F200005480068401C044908602046FEF73AF95D
:101F3000FFF7B0FAF1E700006C00002010B504488C
:101F40000068FFF7EDFAFF20FFF7F0F910BD000081
:101F50007000002000BF00BF02E0C820FFF7ECFBCC
:101F60001F4800780028F8D01E4800686421B0FBA4
:101F7000F1F01C4908600846006828B900201A4999
:101F80000870FF20FFF776FBFEF708F904461548B6
:101F9000006864214843154908602046FEF702F9AD
:101FA00000BFFEF7FBF804461048006810490860BF
:101FB00000200E4908602046FEF7F4F80C4800683F
:101FC00008490968B0FBF1F0C0F1640006490870E7
:101FD000FFF7ACFA00F00EF86420FFF7ADFBE0E786
:101FE0005C00002054000020500000206C00002005
:101FF000580000207CB5002514E069462846FFF70C
:1020000099FA064666B9094850F8254044B1012CB2
:1020100006D0D4E9020100EB8100206401986064DD
:10202000681CC5B23F2DE8D97CBD00008832002075
:1020300012F0010F08D012F0020F05D002E0491E85
:10204000002308C00029FAD1704700000A48006840
:1020500040F00400084908600846006840F00200AB
:1020600008600648006840F004000449086000BFAA
:1020700000BF30BF704700000070004010ED00E06E
:102080000149086070470000A0000E4229B1064ACD
:10209000D2690243044BDA6104E0034AD269824305
:1020A000014BDA61704700000010024029B1064A76
:1020B00092690243044B9A6104E0034A92698243A5
:1020C000014B9A61704700000010024030B50021BA
:1020D0000022002400232D4D6D6805F00C0121B174
:1020E000042905D0082923D105E0294D056022E007
:1020F000274D05601FE0254D6D6805F47012234DD6
:102100006D6805F48034022505EB92421CB9214D1F
:10211000554305600BE01D4D6D6815F4003F03D07D
:102120001C4D5543056002E0194D5543056002E022
:10213000174D056000BF00BF144D6D6805F0F0013C
:102140000909154D6B5C0568DD4045600F4D6D68F4
:1021500005F4E061090A104D6B5C4568DD4085605F
:102160000A4D6D6805F46051C90A0B4D6B5C4568FA
:10217000DD40C560054D6D6805F44041890B074D94
:102180006B5CC568B5FBF3F5056130BD001002401E
:1021900000127A0000093D00040000201400002015
:1021A00008B501210820FFF781FF03208DF8020008
:1021B00010208DF803000420ADF8000069460248A5
:1021C000FEF798FB08BD0000000C014070470000BE
:1021D0000420014908607047100C014004200149A7
:1021E00008607047140C0140704710B500F002F809
:1021F00010BD00000CB5002001900090324800682E
:1022000040F480303049086000BF2F48006800F477
:10221000003000900198401C0190009818B9019876
:10222000B0F5A06FF1D12848006810F4003F02D04B
:102230000120009001E0002000900098012842D188
:102240002248006840F010002049086008460068F5
:1022500020F0030008600846006840F002000860B3
:102260001948406818494860084640684860084670
:10227000406840F4806048600846406820F47C1064
:1022800048600846406840F4E81048600846006826
:1022900040F08070086000BF0B48006810F0007FBD
:1022A000FAD00948406820F0030007494860084612
:1022B000406840F00200486000BF0348406800F0FA
:1022C0000C000828F9D10CBD00100240002002408B
:1022D00010B51348006840F0010011490860084635
:1022E0004068104908400E494860084600680E4999
:1022F00008400B4908600846006820F48020086008
:102300000846406820F4FE0048604FF41F008860D3
:10231000FFF76BFF4FF000600449086010BD00003C
:10232000001002400000FFF8FFFFF6FE08ED00E09D
:1023300010B5024800F0EDF810BD000010150020A7
:1023400010B5024800F0E5F810BD0000381D00206F
:1023500010B5024800F0DDF810BD00006025002037
:1023600001F40072B2F5007F00D100BFCA430280C1
:10237000704721B1828942F40052828104E082894F
:102380004DF6FF731A408281704770B502460024F3
:10239000002300250020A1F510666A3E00D100BF91
:1023A000C1F3421501F01F03012606FA03F3012DC4
:1023B00002D19689334006E0022D02D1168A3340BD
:1023C00001E0968A33400C12012606FA04F41688BE
:1023D000344013B10CB1012000E0002070BDF0B515
:1023E00003460024002600250020A1F510676A3F5F
:1023F00000D100BF1846C1F3421401F01F060127A7
:1024000007FA06F5012C01D10C3004E0022C01D1B1
:10241000103000E014301AB107682F43076002E063
:102420000768AF430760F0BD2DE9F04786B0054669
:102430000E460024A24600BFA1460027B08900B185
:1024400000BF2F462C8A4CF6FF700440F0880443EE
:102450002C82AC894EF6F3100440B08831890843D1
:10246000718908430443AC81AC8A4FF6FF400440B5
:10247000B0890443AC8201A8FFF728FE1F488742B9
:1024800002D1DDF810A001E0DDF80CA0A88910F45D
:10249000004F08D00AEBCA0000EB0A10316849006F
:1024A000B0FBF1F807E00AEBCA0000EB0A10316854
:1024B0008900B0FBF1F86420B8FBF0F004012009BA
:1024C000642101FB1089A88910F4004F08D0322044
:1024D00000EBC900B0FBF1F000F00700044308E096
:1024E000322000EB09106421B0FBF1F000F00F0086
:1024F00004432C8106B0BDE8F0870000003801409D
:1025000001468888C0F308007047C1F30802828042
:10251000704770B5044640F225512068FFF735FF3B
:10252000E0B12068FFF7ECFFC5B2E18AA06845542E
:10253000E08A401C80B2E082E189884201DB002011
:10254000E082608BE189884202DA608B401C608304
:10255000606A10B12846616A884700BF40F227715F
:102560002068FFF712FF08B3A08A60B9002240F28A
:1025700027712068FFF733FF012240F226612068AF
:10258000FFF72DFF37E0638A6268D15C2068FFF7B0
:10259000BCFF608A401C80B26082A189884201DB56
:1025A00000206082A08A401EA08224E040F22661C2
:1025B0002068FFF7EAFEF0B1A08A50B9002240F28D
:1025C00026612068FFF70BFF206AA0B1206A8047D0
:1025D00011E0638A6268D15C2068FFF796FF608A29
:1025E000401C80B26082A189884201DB00206082A9
:1025F000A08A401EA08270BD2DE9F04104460E461F
:102600001746002527E00CE0012000F0B2F8B4F8EE
:102610001480002000F0ADF8A089404500DD01E005
:1026200000BFF1E700BF705D228A61688854012015
:1026300000F09FF8208A401C80B22082A189884245
:1026400001DB00202082A08A401CA082002000F034
:1026500090F8681C85B2BD42D5DB012240F227719B
:102660002068FFF7BCFEBDE8F08100002148224948
:10267000086022484860224888604FF48060888162
:10268000C881002008824882C882088348838882E3
:10269000C861086248621B481B4908601B484860C3
:1026A0001B4888604FF480608881C88100200882C0
:1026B0004882C882088348838882C8610862486269
:1026C00014481549086015484860154888604FF45B
:1026D00080608881C881002008824882C88208837F
:1026E000488388820F48C8610F4808620F484862D3
:1026F00070470000003801401015002038150020F8
:102700003819002000440040381D0020601D0020C2
:10271000602100200048004060250020882500201E
:1027200088290020D1210008DD210008CD210008E2
:1027300000BFFEE70FB4054B10B503A9044A029889
:1027400000F01AF810BC5DF814FB0000032F00081D
:102750008C00002002E008C8121F08C1002AFAD12C
:1027600070477047002001E001C1121F002AFBD111
:10277000704780F3108870472DE9FF4F8BB0884673
:102780000546002667E125287AD100246D1CB6494C
:10279000A146A24601222B78203B02FA03F0084210
:1027A00002D004436D1CF6E728782A2810D06FF079
:1027B0002F022878A0F13001092915D809EB8901E9
:1027C00002EB410144F0020400EB01096D1CF0E74B
:1027D00058F8049BB9F1000F03DA44F40054C9F12E
:1027E000000944F002046D1C28782E2817D115F832
:1027F000010F44F004042A280ED06FF02F0228782D
:10280000A0F1300109290AD80AEB8A0102EB410143
:1028100000EB010A6D1CF2E758F804AB6D1C287838
:102820006C280FD006DC4C2817D068280DD06A28F9
:1028300014D104E0742810D07A280FD10DE044F4AC
:1028400000140AE044F4801401E044F44014697870
:10285000814202D16D1C04F580146D1C2878692812
:1028600066D007DC002876D0632828D0642807D1FA
:102870005EE005E06E2808D073282AD075287AD04B
:10288000DDE90D129047761CE4E0C4F30250022803
:1028900009D003280DD0D8F8001004280DD00E6000
:1028A00008F10408D6E0D8F80010F217C1E9006278
:1028B000F6E7D8F800100E80F2E70E70F0E718F88F
:1028C000041B8DF8001000208DF80100EB4601205C
:1028D00003E058F804BB4FF0FF3061074FF00007EA
:1028E00001D40AE07F1C57450DDA8742FADB1BF85A
:1028F00007100029F6D106E07F1C8742FCDB1BF89D
:1029000007100029F8D1DDE90D23A9EB0700814666
:10291000214600F0BEF83044C61904E0DDE90D128E
:102920001BF8010B90477F1EF8D2214648468CE0E9
:1029300058F8040BC4F302514FF00A0B032900D1DD
:1029400000B2042900D140B2002806DAC0F100002C
:102950004FF02D0104E082E00DE0210504D52B218C
:102960008DF82410012103E0E10710D02021F7E7C2
:1029700008AF089114E058F8040BC4F302514FF06B
:102980000A0B032900D180B2042900D1C0B2002172
:10299000EEE75946FDF75CFC01F1300107F8011D37
:1029A0000028F6D1ADEB070000F1200B600702D53F
:1029B00024F4803401E04FF0010ADA4502DDAAEB8D
:1029C0000B0000E00020824600EB0B010898014458
:1029D000A9EB01000A90E00306D4DDE90D232146AE
:1029E0000A9800F056F80644002008E009A911F8FA
:1029F0000900DDE90D129047761C09F101000899E4
:102A000081468842F2DBE0030CD5DDE90D23214647
:102A10000A9800F03EF8064404E0DDE90D1230208B
:102A20009047761CBAF10001AAF1010AF5DC05E035
:102A3000DDE90D1217F8010B9047761CBBF1000180
:102A4000ABF1010BF4DC0A982146DDE90D2300F01F
:102A50000DF806446D1C287800287FF494AE0FB062
:102A60003046BDE8F08F0000092801002DE9F04153
:102A7000044600251E461746880405D406E039465C
:102A80002020B04705F10105641EF8D52846BDE8B1
:102A9000F0812DE9F041044600251E469046C8030A
:102AA00001D5302700E02027880405D506E04146FF
:102AB0003846B04705F10105641EF8D52846BDE843
:102AC000F081000070B50546304800EB0514206821
:102AD000804700283ED02079052802DA05202071A1
:102AE00052E020790A2803DA2079401C20714BE05B
:102AF000A07A38B90120A07205EB4501491CC8B283
:102B000000F0D0F9208900283EDDE0882189884244
:102B10000DDAE088401C80B2E0802189884233D100
:102B200005EB4501C91CC8B200F0BCF92CE0E07A05
:102B3000002829DD207B401CC0B22073E17A884246
:102B400022DB0020207305EB4501491CC8B200F0D0
:102B5000A9F919E02079052802DD0520207110E08F
:102B6000207918B12079401E20710AE0A07A01284E
:102B700007D10020A07205EB4501891CC8B200F006
:102B800091F90020E080207370BD000090140020B7
:102B90000B48807A0A4AD27A904201D100207047CD
:102BA0000748807A064A115C1046807A401CC0B201
:102BB00090720A2801DB002090720846EFE70000BF
:102BC0000015002010B54FF44070FEF7F9F800F042
:102BD0000FF900F0D5F800F00BF802A0FFF7AAFDFE
:102BE00010BD00007777773D2025640D0A000000B6
:102BF00010B500F069F800F003F800F049F810BDD6
:102C000008B501214FF49A70FFF750FA03208DF8B0
:102C1000020004208DF80300C002ADF800006946F0
:102C20001848FDF767FE4FF48070ADF80000694664
:102C30001548FDF75FFE4FF40040ADF8000069460F
:102C40001148FDF757FE0820ADF8000069460F480F
:102C5000FDF750FE4FF48040ADF8000069460A4889
:102C6000FDF748FE4FF40050ADF8000069460648F5
:102C7000FDF740FE8020ADF8000069460248FDF7F0
:102C800039FE08BD00100140002001400014014041
:102C90001CB501210807FFF7F9F901210520FFF70D
:102CA00005FA0120FFF7ECF90120009000208DF8D3
:102CB000040008208DF8050001208DF80600684604
:102CC000FDF7CEFD1CBD00000021244A9172D17297
:102CD0001173002018E06421214A02EB00121181D7
:102CE00002211F4A02EB0012117100211C4A02EB63
:102CF000001291721A4A02EB0012D172184A02EBCA
:102D000000121173411CC8B20728E4DB6422144985
:102D10000A85052281F82B2064220A87052281F882
:102D20003B206422A1F84820052281F84B20642230
:102D3000A1F85820052281F85B200A49084A116051
:102D4000094911610949116209491163094911646D
:102D500009491165094911667047000000150020F6
:102D600090140020390C0008510C0008690C000870
:102D7000810C0008990C0008B10C0008C90C00086F
:102D800008B501218020FFF791F9012000F046F8F5
:102D9000022000F043F8032000F040F8042000F087
:102DA0003DF803208DF8020010208DF80300C001CB
:102DB000ADF8000069460D48FDF79CFD8020ADF898
:102DC000000069460948FDF795FD4FF48070ADF8A5
:102DD000000069460548FDF78DFD4FF40070ADF821
:102DE000000069460148FDF785FD08BD001C014053
:102DF00010B5FFF73BFCFDF733FEFFF7D1F9FDF708
:102E00007DFC10BD10B5002404E02046FFF75AFEFB
:102E1000601CC4B2072CF8DB10BD0000411EC8B214
:102E200020B94FF400610B4A116011E0012803D171
:102E30008021084A11600BE0022803D1C101054A34
:102E4000116005E0032803D14FF40071014A1160BD
:102E500070470000101C0140012806D11049096884
:102E600081F400610E4A116019E0022806D10C4974
:102E7000096881F080010A4A116010E0032806D138
:102E80000749096881F48071054A116007E0042848
:102E900005D10349096881F40071014A1160704746
:102EA0000C1C01400649C97A054A50541146C97A9A
:102EB000491CC9B2D1720A2901DB0021D1727047C5
:102EC000001500202DE9F04105460E46174628461C
:102ED000FDF7F8FB04460CB9BDE8F081E06908B1E4
:102EE000E06980473A4631462046FFF785FB00BF40
:102EF000F2E713B50446012201A92046FFF7E2FFDD
:102F00001CBD70B504460D46E1B20020FFF7F1FF8D
:102F1000204670BD00B587B0FDF7E8FF0320002113
:102F20004FF480720B4BCDE90221CDE900130490E0
:102F30000B46094A0948FEF793F906AA08A10020A2
:102F4000FEF7ACFA0020FEF775FCFEF739F9002019
:102F500007B000BD900000208C0400200D04000884
:102F60005374617274205461736B0000000001009F
:102F70000200010003000100020001000400010042
:102F80000200010003000100020001000500010031
:102F90000200010003000100020001000400010022
:102FA0000200010003000100020001000600010010
:102FB0000200010003000100020001000400010002
:102FC00002000100030001000200010005000100F1
:102FD00002000100030001000200010004000100E2
:102FE00002000100030001000200010007000100CF
:102FF00002000100030001000200010004000100C2
:1030000002000100030001000200010005000100B0
:1030100002000100030001000200010004000100A1
:10302000020001000300010002000100060001008F
:103030000200010003000100020001000400010081
:103040000200010003000100020001000500010070
:103050000200010003000100020001000400010061
:103060000200010003000100020001000100000055
:103070007856341201000A0001001800F000010027
:103080000000000000000000050001003F000100FA
:103090000000050001000000000000000400000026
:1030A000040000000800010004000100010001000C
:1030B00080000100160001000100800001000100F5
:1030C00040005000E80301001B72000010000100E6
:1030D00007000A0000000000000000000A0D0000C8
:1030E0000031000800000020900000005427000874
:1030F0009031000890000020D845000064270008A7
:1031000000000000000000000102030401020304AB
:10311000060708090204060800A24A04000000008D
:103120000000000001020304060708090000000077
:10313000000000000000000000000000000000008F
:10314000000000000000000000000000000000007F
:10315000000000000000000000000000000000006F
:10316000000000000000000000000000000000005F
:10317000000000000000000000000000000000004F
:10318000000000000000000000000000000000003F
:0400000508000131BD
:00000001FF
