:020000040800F2
:10000000103B0020A94700088D4500088F450008D7
:10001000BD450008BF450008C145000800000000BC
:10002000000000000000000000000000C3450008C0
:10003000C5450008000000008F260008792400084C
:100040000148000805480008094800080D48000854
:100050001148000815480008194800081D48000804
:100060002148000825480008294800082D480008B4
:100070003148000835480008394800083D48000864
:100080004148000845480008494800084D48000814
:100090005148000855480008594800085D480008C4
:1000A0006148000865480008694800086D48000874
:1000B0007148000875480008794800087D48000824
:1000C0008148000885480008894800088D480008D4
:1000D00091480008DB3F0008994800089D48000847
:1000E000A1480008A5480008A9480008AD48000834
:1000F000B1480008B5480008B9480008BD480008E4
:10010000C1480008C5480008C9480008CD48000893
:10011000D1480008D5480008D9480008DD48000843
:10012000E1480008E5480008E9480008ED480008F3
:100130002DE9F04FA1B0804617461D46029102AE50
:100140000020706211AC6FF000490AE017F8011B43
:100150000298C0470290002800F07C82706A401C20
:100160007062387808B9706A76E22528EED10020EE
:10017000F06030617061B061F061306201E040F0C8
:10018000010017F8011F2029F9D023290ED02B29AF
:1001900004D02D2906D030290CD00FE040F0020009
:1001A00080B2EEE740F0040080B2EAE740F00800D9
:1001B00080B2E6E740F0100080B2E2E72A290DD1D4
:1001C00029680A1D2A600968F162002904D549429C
:1001D000F16240F0040080B27F1C11E00021F16266
:1001E00009E0F16A494505D001EB810302EB4301C7
:1001F0003039F1627F1C3A78A2F130010A29F0D33C
:1002000039782E291CBF4FF0FF31B1621CD117F88D
:10021000011F2A2906D129680A1D2A600968B162CE
:100220007F1C11E00021B16209E0B16A494505D0A7
:1002300001EB810302EB43013039B1627F1C3A7854
:10024000A2F130010A29F0D3308639780FF6CC308C
:1002500000F008FE08B117F8010B8DF83A009DF880
:100260003A00682804D1387868280AD1622005E06D
:100270006C2804BF38786C2803D171208DF83A00BF
:100280007F1C11A8B0603A781046253825D01C385C
:1002900075D0001F022872D9133800F09C800938ED
:1002A0006DD0801E00F03781401E00F0DD80401EC2
:1002B000022864D9001F00F0D780401F34D0401EB0
:1002C00000F08980401E24D0C01E0CD0801E00F09B
:1002D0008280C01E00F07F8026E1F068411CF16042
:1002E000252101552AE12868011D296000687060F8
:1002F000B26A002A03D500F0D1FD30611EE1002171
:1003000000F0F4FD00281ABF7168401AB06A30612D
:1003100014E12868011D296000680021CDE9000171
:1003200011A870607821F2E09DF83A00622818D098
:10033000682806D06A280BD06C2819D0712807D0FD
:1003400016E02868011D2960716A00680180F5E0E7
:100350002A68101D2860706AC1171268C2E900017E
:10036000ECE02868011D2960716A00680170E5E011
:100370002868011D2960716A00680160DEE0286854
:10038000C01D20F007002860034603F10800286024
:10039000D3E90001CDE90001002904D5F068411C32
:1003A000F1602D210DE0308E810704D5F068411CED
:1003B000F1602B2105E0C00704D5F068411CF16015
:1003C00020210155F06811A940187060114600A85D
:1003D00000F0D8F9B2E09DF83A306C2B08BF2868DD
:1003E00011D0712B08BF286802D06A2B28680AD167
:1003F000C01D20F00700286084460CF1080028602A
:10040000DCE9000103E0011D296000680021CDE95D
:100410000001682B04BFDDE9000180B20BD0622B24
:1004200004BFDDE90001C0B205D0742B18BF7A2BE0
:1004300004D1DDE900010021CDE9000196F830008A
:1004400000075FD5DDE90001002908BF002859D069
:1004500042F02000782855D1F06830210155401C29
:10046000411CF16002554DE09DF83A0062280CD025
:10047000682810D06A281AD06C2824D0712816D089
:10048000742820D07A280CD01DE02868011D29602E
:1004900090F900001BE02868011D2960B0F90000F8
:1004A00015E02868011D29600068002110E0286817
:1004B000C01D20F007002860034603F108002860F3
:1004C000D3E9000104E02868011D29600068C11714
:1004D000CDE90001DDE90001002904DAF068411CE2
:1004E000F1602D210DE0308E810704D5F068411CAC
:1004F000F1602B2105E0C00704D5F068411CF160D4
:1005000020210155F06811A940187060114600A81B
:1005100000F0A5F812E0F068411CF16029680A1D9E
:100520002A600968015509E0F068411CF160252145
:1005300001551AB1F068411CF16002557F1CF06A48
:10054000F168401AB169401A3169401AF169401ADC
:100550007169401A316AA0EB010A96F83000400731
:1005600011D420208DF84000BAF1010F0BDBD346E7
:10057000012310AA00A9404600F038FC002869D1E8
:10058000BBF1010BF4D1F36811AA00A9404600F0B9
:100590002DFC00285ED130208DF84000D6F818B030
:1005A000BBF1010F0ADB012310AA00A9404600F0AD
:1005B0001DFC00284ED1BBF1010BF4D133697268E8
:1005C00000A9404600F012FC002843D130208DF8ED
:1005D0004000D6F81CB0BBF1010F09DB012310AAC3
:1005E00000A9404600F002FCA0BBBBF1010BF5D115
:1005F000736930697168421800A9404600F0F6FB43
:1006000040BB30208DF84000D6F820B0BBF1010F80
:1006100009DB012310AA00A9404600F0E7FBC8B996
:10062000BBF1010BF5D196F8300040077FF599AD8D
:1006300020208DF84000BAF1010FFFF692AD0123A2
:1006400010AA00A9404600F0D1FB18B9BAF1010A7E
:10065000F5D186E54FF0FF3021B0BDE8F08F2DE9F0
:10066000FA4B86B005462F696F2908BF082605D0CA
:1006700041F02000782814BF0A2610263C24D5E932
:10068000000181468B469DF81820642A18BF692A0C
:1006900005D1002903DAD9F100096BEB4B0BBBF153
:1006A000000F08BFB9F1000F0CD1286B50B9082E0C
:1006B00044D195F83800000740D53B24302087F816
:1006C0003B003BE0A4F101084446F017CDE904608B
:1006D00048465946DDE9042300F034FCCDE9020127
:1006E000CDE9009BDDE90223DDE90401A0FB029BCB
:1006F000DDE90001A0EB09003030C0B23A2803D395
:100700009DF818105139081808F80700DDE9029B18
:10071000BBF1000F08BFB9F1000F03D0E868E11981
:100720008842CFD3082E09D195F83800000705D5A7
:10073000E05D302802D0641E3020E055C4F13C005A
:10074000A861E119E960296B884207DA081A286272
:10075000288F4FF6EF710840288710E000290ED54A
:1007600095F8381001F01401102908D1696B6A69F5
:10077000891A2A6A891A0C1A012CA8BF2C6208B09F
:10078000BDE8F08B2DE9F24F8EB0054604AFD5E9F8
:100790000001CDE902019DF8380040F020008DF8FD
:1007A000000061280BD0286B002848BF062005D424
:1007B00004BF9DF80000672801D101202863696803
:1007C000C1F30A5040F2FF7398421CD1080304BFE2
:1007D0002868002809D10320A8619DF838006138F5
:1007E0001A2837D30FF2486108E00320A8619DF86A
:1007F000380061381A282AD30FF22C610322E868E6
:1008000000F018FCBBE1010017D1284600F04DFCB8
:10081000012812DB002400209DF80010612920D15E
:10082000E968302201F8012B4A1CEA609DF8382063
:10083000612A0CBF782258220FE040F2FE316A682C
:1008400061F31E526A60441A4FF0FF30E4E70FF282
:10085000D451D3E70FF2D451D0E70A706969891CEB
:10086000696110B90026B0467FE19DF8000061285B
:1008700040F09780286B00284CBF2126461C36B2DA
:10088000771CD5E900ABDDE902010022002300F06E
:100890002FFC3ABF8BF00040CDE902A0CDE902ABBE
:1008A000A4F104088DF810200DF11109012F33DB9C
:1008B000DDE902010022002300F032FC2CD21C21D1
:1008C00002A800F045FCDDE9020100F0CFFC04467F
:1008D000FF1F012F09DB00F0F5FC02460B46DDE9A6
:1008E000020100F007FDCDE9020109F2070007212E
:1008F00004E004F00F0200F8012D2411012C01DBAB
:10090000491EF6D5491E5CBF002200F8012DF9D51D
:1009100000F20709012FCBDA0DF11100A9EB00015C
:100920000DF11107B142B8BF0E4636B2002E31D4D8
:100930003046884206DA04A941184978082928BFB8
:100940000F2100D2002104AA821800E0761E401E6A
:1009500012F801398B42F9D00F2904D104A94118AA
:100960004A78521C4A70002803D504AF761C08F15F
:10097000040836B2701E0DD4C1190A783032D2B2D2
:100980003A2A03D39DF838303A3B9A1801F80129E6
:10099000401EF2D5286B002840F1E780701E2863C6
:1009A000E3E0DDE902010022002300F0A1FB05D213
:1009B000DDE9020181F00041CDE9020124B247F2F4
:1009C000975060436F4990FBF1F80FFA88F8C8F12F
:1009D00007040027DFF8B091012C19DBDDE902AB39
:1009E000E00707D5504659463A464B4600F042FDCF
:1009F00082468B466410384649463A464B4600F0DC
:100A000039FD07468946002CEAD1CDE902AB21E049
:100A100064429246DFF874B114D0E00707D550461F
:100A200059463A464B4600F025FD82468B466410F7
:100A3000384649463A464B4600F01CFD0746894673
:100A4000002CEAD1DDE9020152465B4600F0E4FDEC
:100A5000CDE902019DF8000066280CBF08F10A00EC
:100A60000620296B4618142EA8BF132630208DF8B7
:100A700010000DF11104464F012E33DBDDE90201B8
:100A800000F00AFC04F1080104220A24B0FBF4F38C
:100A900003EB830EA0EB4E00303001F8010DB3FBE9
:100AA000F4F000EB8004A3EB4403303301F8013D84
:100AB000521EEAD101F10804083E012EDCDBDDE91B
:100AC000020100F0E9FB00F007FC02460B46DDE9FD
:100AD000020100F00FFC00223B4600F0CBFCCDE908
:100AE0000201CBE70DF11100201A0DF111079DF85D
:100AF0001110302906D1401EA8F1010817F8011F76
:100B00003029F8D09DF80010662904BF0FFA88F844
:100B100008F1010103D065290CBF012100212A6BD6
:100B20008E1836B2B042B8BF064636B2002E1CD47C
:100B30003146814204DAC85D352828BF392000D209
:100B40003020CA19521E00E0761E491E12F80139E3
:100B50008342F9D0392802D1C85D401CC85500290C
:100B600003D57F1E761C08F101080FFA88F000906B
:100B700033B23A469DF83810284600F00BF80FB013
:100B8000BDE8F08FA0860100000024400000F03F87
:100B900084D797412DE9F04786B006468A469046AD
:100BA0001C46BDF9385000F078FE406A90F800907D
:100BB000376B012C02DA01240FF278284AF020006A
:100BC000662807D067287AD16FF003018D427CDB5D
:100BD000BD427ADA6D1C66280AD096F83800000704
:100BE00002D4BC42B8BF27462DB27F1B48BF0027A6
:100BF000F068B1692DB2012D21DA4A1C30230B5463
:100C0000012F03DA96F83810090702D502F8009090
:100C1000521CB261EF42B8BF7D422DB2694271628F
:100C2000EF19A742B8BF3C4624B2F46122464146C0
:100C3000B369181800F0FEF9381BB062BFE008185D
:100C4000AC4216DA2246414600F0F4F9B169611867
:100C5000B161281B7062012F03DA96F83800000793
:100C600005D5F06801F80090F069401CF061B762AA
:100C7000A5E02A46414600F0DDF9B0692818B061C8
:100C8000641B012F03DA96F83810090704D5411CBC
:100C9000B161F16800F8019024B2A742B8BF3C46A8
:100CA00024B2224605EB0801B069F368C01800F0D1
:100CB000C1F9B0692018B061381B70627FE0BAF1E9
:100CC000610F14D14FF0700A16E0BC4204DA96F8B6
:100CD0003810090758BF27467F1E48BF0027BAF1C2
:100CE000670F14BF4FF0450A4FF0650A04E0BAF1F0
:100CF000410F08BF4FF0500AB1694A1CF06818F85C
:100D0000013B0B54012F03DA96F83810090702D57E
:100D100002F80090521CB261012F10DB641E24B255
:100D2000A742B8BF3C4624B222464146B3691818D0
:100D300000F080F9B0692018B061381B7062B069AA
:100D4000F16800EB010808F801AB002D5CBF2B2017
:100D500008F8010B03D52D2008F8010B6D42002483
:100D600002AF2DB2012D0EDB0A22294600A800F0A9
:100D7000ADFD019807F8010B009D641C2DB2012DFB
:100D8000F2DA022C06DA4AF02000652804BF30208F
:100D900008F8010B1CB9302008F8010B09E0012C00
:100DA00007DB641E02A8205C303008F8010B012C20
:100DB000F7DAB069F1684018A8EB0000F06196F826
:100DC000380000F0140010280DD17069B1690818BE
:100DD000716A0818F1690818B16A0818716B8842BD
:100DE000BCBF081A306206B0BDE8F087F8B504460B
:100DF0000D4616461F46002077B116F8011BA8685D
:100E0000A047A86030B1E86A401CE86200207F1E5D
:100E1000F3D1F2BD4FF0FF30F2BD0000686A6C7490
:100E20007A4C00006E616E004E414E00696E6600A5
:100E3000494E4600300010B450F8041B81B10268DE
:100E40001218001D50F8043BDC0744BFA9F101044F
:100E5000E31852F8044B43F8044B091FF9D1EBE7B0
:100E600010BC70470278C9B28A421AB11CBF10F890
:100E7000012FF9E718BF0020704750F8041B61B13B
:100E800050F8042BD30744BFA9F101039A1800239B
:100E900042F8043B091FFAD1EFE7704700F1010364
:100EA000810704D010F8011B89B18107FAD10268CB
:100EB000B2F10131914311F0803F04BF50F8042F8B
:100EC000F6E710F8011B11B110F8011BFBE7C01A7F
:100ED00070478268521C8260426832B10268531CBB
:100EE000036011704168491E41607047C9B28307B1
:100EF00006D0521E22D310F8013B9942F7D11FE0D1
:100F0000083A13D302F1040241EA012141EA014106
:100F100050F8043B121F21BF4B40A3F1013C2CEAC7
:100F2000030C1CF0803FF3D0C9B2001F083210F848
:100F3000013B521E28BF91EA030FF8D818BF0120C9
:100F4000401E70471B4213D1094236D12AB1844654
:100F5000B0FBF2F002FB10C2704700F0BFBCFCD344
:100F60000022002370470B00020000210020704780
:100F7000904271EB030CF6D370B5B1FA81F4B3FA79
:100F800083F52C1BA340C4F1200532FA05F6334348
:100F9000A2405FF00046E64002E05B085FEA3202F2
:100FA000841A71EB030524BF204629467641F4D309
:100FB00002000B003000002170BD012ACFD970B5AE
:100FC000140C20D0B1FA81F4B2FA82F5C4F12004F5
:100FD0006419B4F12006D6D3B2405FF00044F44067
:100FE000002502E052085FEA3303C61A71EB020ED5
:100FF00024BF3046714664416D41F3D302000B00BB
:101000002000290070BD0C46B1FBF2F102FB114536
:101010002D0445EA1045B5FBF2F402FB145580B2ED
:1010200040EA0545B5FBF2F002FB105240EA0440ED
:1010300070BD010062B38B0708D0521E11F8013B4E
:1010400000F8013B00F024808B07F6D1830740F0C5
:10105000208000BF103A07D330B4B1E83810103AFE
:10106000A0E83810F9D230BC530724BFB1E808100B
:10107000A0E8081044BF51F8043B40F8043BD207F5
:1010800024BF31F8022B20F8022B44BF0B780370E9
:101090007047083A07D3B1E80810083A40F8043B13
:1010A00040F804CBF7D25307E4E730B4416801F0CD
:1010B0000042012143681B031B0B436004BF03680C
:1010C000002B0ED003684468DD0F45EA44044460F9
:1010D0005B000360491EE302F4D543681B031B0B4E
:1010E000436043681A434260084630BC70470100C1
:1010F0004FF4001C1CEB410F94BF1CEB430F09E0A5
:1011000041EA030C50EA4C0C52EA0C0C03D299420F
:1011100008BF9042704714BF8B42824270470A005A
:101120004FF4001C1CEB410F94BF1CEB430F09E074
:1011300041EA030C50EA4C0C52EA0C0C03D28B42ED
:1011400008BF8242704714BF994290427047010025
:1011500070B504460D466068C0F30A5040F2FF7255
:10116000904207D16068000304BF2068002818D0AF
:10117000022070BD010004D12046FFF796FF012830
:1011800067DA012D0FDB40F2FF71091A8D420AD395
:101190006068002847BF00202F4900202F49C4E97C
:1011A0000001012070BD4142A942616806DA2C4A63
:1011B0001140401941EA0050606053E001F00041E5
:1011C00062681203120B42F480126260401E4519DD
:1011D00005F13500352803D361600020206070BD23
:1011E000002215F11F0F05DA2035226860682060A3
:1011F00000206060684213D0521E9241D243C0F179
:10120000200325689D4055EAD2722568C54066686E
:1012100006FA03F32B432360636823FA00F060604F
:10122000606808436060B2F1004F03D80BD12078AA
:10123000C00708D52068401C2060206818B9606885
:10124000401C60600EE06068884204BF206800288F
:10125000F8D1002070BD00000000F0FF0000F07F1A
:10126000FFFF0F804FF0FF3070BD1800F446400DB7
:1012700040EAC120490006D200F014F8004248BFFD
:101280006FF00040604700F00DF84FF000418842D9
:101290008CBF084640426047400D40EAC1204900EB
:1012A00080F00D8040F00040490DA1F58061491C9F
:1012B00005D4D1F11F0154BFC840C01770474FF08B
:1012C00000007047010040F10980F446404200F000
:1012D00005F851F000416047010000BF09D0B0FAA5
:1012E00080F18840C91CC1F58461090501EBD0215A
:1012F0004005704770B44FF0004591EA030F44BFBA
:101300006B4000F0EDBA00BF841A71EB030604D203
:101310006E40001BB141121973414FF4001C1CEBCD
:10132000410F34BF7CEB430684E00C0DA4EB135655
:10133000362E7DDC012E43DC45EAC32343EA5253BB
:1013400012BFD20292025B08240545EAC12141EA9C
:101350005051D2EBC020994125D407D1B0FA80F684
:1013600010FA06F164D00020203608E0B1FA81F6C8
:10137000B140C6F1200220FA02F21143B0404FEA18
:10138000F474B4EB465434F001064FEA74040AD8FE
:10139000D6F50016760D04F00044F04061FA06F22E
:1013A0005040F1404840C00A40EA415021F000411D
:1013B00028BF5FEA500550F1000044EBD12137E02F
:1013C00045EAC323DB0A45EAC121C90AB6F1200573
:1013D0000EDD42EA0242120CC5F1200603FA06F6BF
:1013E000EB4042EA06056D42984161F100010DE0D3
:1013F00062FA06F5F240554063FA06FC82EA0C02F6
:10140000F3405A406D42904161EB030111F4801F9B
:1014100005D1641E620502D06D004041494121F4AE
:101420008011430875F1004350F1000041EB045175
:1014300070BC70471CEB410F15D223F0004352EAF9
:1014400043060BD04FEA4C0CBCEB410F04D80C0DFB
:10145000661E342EB7DDEBE7801A994150EA41064B
:1014600008BF0021E4E708BF1CEB430F28BF6FF063
:101470000001DDE7B0B581EA030C0CF0004C40F24E
:10148000FF7515EA11541DBF15EA1357AC42AF4260
:1014900039E0E41923EA455343F48013C90241F0CB
:1014A000004141EA505EC7021100A7FB020200287A
:1014B0004FF00000EEFB01204FF00001E3FB07219D
:1014C00018BF42F00102401800214941E3FB0E0120
:1014D000A4F580640F0302D252004041494154F107
:1014E00001046CDD470872F1004250F1000051EB3D
:1014F0000451A1F580115CBF41EA0C01B0BD4CEA7A
:1015000005510020B0BD05EA1357AC4214BFAF42ED
:1015100041E050EA410E1CBF52EA430E02E0614630
:101520000020B0BD24423C441BD15FEA070EF6D038
:10153000090302BF01460020AEF1140EB1FA81F793
:10154000AEEB070401FA07FE0C37C7F1200100FAE1
:1015500007F7C8404EEA000E23EA455343F48013D0
:10156000A2E733F00043B3FA83F704BFB2FA82FE76
:1015700077440B3FE41BB7F1200E2FBF02FA0EF3A6
:10158000BB40C7F1200E22FA0EFE38BF43EA0E031D
:10159000BA40641C82E750EA410E14BF52EA430E7F
:1015A0006FF000014FF4001717EB430F8ABF194685
:1015B00017EB410FB5E74CEA05510020B0BDD4F15F
:1015C0000104B4F120070FDAC4F12007520828BF44
:1015D00042F0010210FA07F501FA07F7E1BF2A43CA
:1015E000E0403843E1400FE0352C98DCC7F120049F
:1015F00052EA400220FA07F218BF42F0010231FA23
:1016000007F0A1400A43002172F1004250F10000AE
:1016100051EB0C01B0BDF000F0B540F2FF7581EA6E
:10162000030C0CF0004C15EA11541DBF15EA1357BA
:10163000AC42AF42E5E0BC41C1F31301C3F3130375
:10164000801A994143F4801304D2641E400049413A
:1016500080185941C90241EA5051B1FBF3F603FB2E
:101660001611A2FB0675D7EBC020A94102D2761E47
:1016700080185941C90241EA5051B1FBF3FE03FB06
:101680001E11A2FB0E75D7EBC020A94103D2AEF10B
:10169000010E80185941890241EA9051760546EAC7
:1016A0008E2EB1FBF3F603FB1611A2FB0675D7EBEA
:1016B0008020A94102D2761E80185941C90241EA10
:1016C00050514EEA060EB1FBF3F603FB1611A2FBD6
:1016D0000675D7EBC020A94102D2761E8018594169
:1016E000C90241EA5051B1FBF3F703FB1711A2FB0A
:1016F0000735D3EBC020A94167F100070CBF0042BA
:1017000047F0010766F3D5274FEA1E31B80814F5F4
:10171000806412DDBD0775F1004250EB0E5051EBB5
:10172000045111F5801F5CBF41EA0C01F0BD4CF083
:101730007F6141F0E0410020F0BDBD076D0840EA47
:101740000E5041F48011D4F10104B4F120060ADAFC
:10175000C4F120060200E04001FA06F3E14018431C
:10176000B24015430EE0342C13DCC6F1200445EAE8
:1017700040056D0820FA06F2154321FA06F0A14053
:101780000D43002175F1004250F1000051EB0C01B6
:10179000F0BD00205FEA0C01F0BDCFB992185B41AB
:1017A000B3FA83F704BFB2FA82F6BF190B3FB7F161
:1017B00020062FBF02FA06F3BB40C7F1200622FA2B
:1017C00006F638BF3343BA401CB1E419641E33E750
:1017D0007F4231F00041B1FA81F404BFB0FA80F6E3
:1017E000A4190B3CB4F120062FBF00FA06F1A1406A
:1017F000C4F1200620FA06F638BF3143A0403C1B56
:101800001AE7AC421ABF05EA1357AF4212E050EA9A
:1018100041061CBF52EA4306BFE750EA4107304683
:1018200061461CBF41EA0551F0BD52EA430C08BFB6
:10183000C143F0BD00204FF4001616EB410F98BFD6
:1018400016EB430F08BF16EB410F24BFC14305E061
:1018500016EB430F0CBF61464CEA0551F0BD010089
:1018600080B5134800F0A6F80FF24801016041600E
:101870008160C1600161416181610FF23C0242629D
:101880008162C162016341630FF2300282630FF231
:101890003402C2630164416401BD10B5044800F024
:1018A00089F80446206808B9FFF7DAFF204610BD22
:1018B00000000020000000002E00000066616C7334
:1018C00065000000747275650000000091FBF2F382
:1018D00003FB1211C0E9003170470000704700009F
:1018E000841A71EB030603D2001BB1411219734134
:1018F0004FF4001C1CEB410F34BF7CEB430443E06E
:101900000C0DA4EB1356352E50DC45EAC323DB0A3D
:1019100045EAC121C912B6F120050DDD63FA05F6CD
:10192000EB4086EA0305124218BF45F00105C018D6
:1019300051F100010CD213E062FA06F5F240554075
:10194000F3415A40B340F3405A408018594107D3FD
:1019500049085FEA30005FEA350528BF45F0010518
:1019600001F58011420875F1004250F1000041EB91
:10197000045170BC4FF4001C1CEB410F38BF704782
:101980000020090D090570471CEB410F10D252EAE7
:1019900043060BD0BCEB410F05D80C0DAB43661EC4
:1019A000342EB5DD02E0AB438018594170BC70475E
:1019B00070BC70477047000080B500F0E1FC00F09B
:1019C00053FA00F07CFA00F0D9FA00F018FA00F0AF
:1019D00097FA00F0B4FA00F0E3FC00F07DFD01BDE1
:1019E000DFF82409007801280BD1DFF850070078D0
:1019F000FF2806D0DFF844070078401CDFF83C17CA
:101A00000870704710B50024DFF8FC080078012842
:101A100041D100F01BFE0400DFF820070078002809
:101A200006D0DFF818070078401EDFF8101708709E
:101A3000DFF80807007800282AD1DFF804070078CB
:101A4000002825D100F00DFBDFF8C0080078DFF892
:101A5000C01851F82000DFF8BC180860DFF8AC08A7
:101A60000078DFF8B4180978884211D0DFF8A408AC
:101A70000068406B401CDFF89C1809684863DFF879
:101A80009C080068401CDFF89418086000F0FBFD1B
:101A9000200000F0DFFD10BD80B5DFF86C08007895
:101AA000002819D100F0DDFADFF86C08DFF85C18C7
:101AB00009780170DFF854080078DFF8541851F8FD
:101AC0002000DFF850180860DFF83808DFF8441805
:101AD0000968016000F0C1FD01BD10B500240220BD
:101AE00000F00AFE00F0B2FD0400DFF83808002123
:101AF0000160200000F0AEFD642000F0FDFD00F06C
:101B0000A5FD0400DFF82008DFF818180968016057
:101B1000DFF8180801210170200000F09BFD10BDC6
:101B200070B5002600F0A4FC00F090FD0600DFF880
:101B300000080068401CDFF8F8170860300000F06B
:101B400089FDDFF8C4070078012863D1DFF8E407D6
:101B50000078002803D0022807D003D30CE001202E
:101B600005000FE0002005000CE001200500DFF873
:101B7000C4070121017005E001200500DFF8B4076A
:101B800000210170EDB2002D44D0DFF8AC070068F1
:101B9000040094F82E003F283CD000F057FD0600CA
:101BA000A06A002831D0A06A401EA062A06A002866
:101BB0002BD194F82C003721084209D094F82C003E
:101BC00010F0C80084F82C00012084F82D0002E0F9
:101BD000002084F82D0094F82C00000715D4DFF8BD
:101BE0005C07007894F832100843DFF8501708704B
:101BF00094F83000DFF84817405C94F8311008433F
:101C000094F83010DFF8382788546469300000F009
:101C100021FDBEE770BD70472DE9F84F04000D00AF
:101C200016001F00A07ADFF81C17405C81465FFA9F
:101C300089F919EB0400C07ADFF80817405C824686
:101C40005FFA89F95FFA8AFA1AEBC90083465FFAEC
:101C50008BFBDFF8BC0650F82B0080460020C8F84C
:101C60002800C8F8245098F82C00B04388F82C00BD
:101C700088F82D7098F82C00000717D4DFF8BC0600
:101C8000007898F832100843DFF8B01608705FFA51
:101C900089F9DFF8AC0619F8000098F8311008430C
:101CA0005FFA89F9DFF8981609F80100210040462B
:101CB00000F056F8D8F82000002806D0D8F82010F8
:101CC000404600F068F8C8F81C405846C0B2BDE86D
:101CD000F28FDFF830261268D061DFF8282612680C
:101CE00092F830201218D27ADFF818361B6893F871
:101CF00031301A43DFF80C361B6893F830301B186C
:101D0000DA72827ADFF8FC351B6893F832301A43B6
:101D10008272DFF8F025126892F830201100C9B203
:101D2000DFF81C268A5CDFF8DC351B6893F831305D
:101D30009A43C9B2DFF80836CA54C9B2DFF80026A0
:101D40008A5C002A0BD1DFF8F4251278DFF8B4356D
:101D50001B6893F832309A43DFF8E0351A70704709
:101D600010B490F830301A00D2B25318DB7A90F8E1
:101D70003140A343D2B25418E372D2B25318DB7A83
:101D8000002B04D18B7A90F83240A3438B7200234E
:101D9000C36110BC7047F0B490F830703C0090F80C
:101DA00032703D0090F831703E000A0017683B0029
:101DB000002B14D0E4B2E718FF7AB743E4B214EB77
:101DC000030C8CF80B70E4B2E718FF7A002F02D1F5
:101DD0009F7AAF439F72121D17683B00E8E7F0BC83
:101DE00070470022827200221100C9B2082905D270
:101DF000C9B20A180023D372491CF6E77047F8B538
:101E0000F021DFF8440500F0F5F800200400A4B24A
:101E1000092C16D2601C0500A4B21820DFF8281582
:101E200000FB04100600ADB21820DFF81C1500FB03
:101E3000051007000020307077609BA07061641C63
:101E4000E5E7A4B21820DFF8001500FB0410060037
:101E5000002030700020706093A07061DFF8EC0407
:101E6000DFF8E4140160F1BDDFF8C4040021016073
:101E7000B24800210170B24800210170DFF8D0049F
:101E800000210170DFF8800400210170DFF88C046C
:101E900000210160DFF88C0400210160DFF8B40448
:101EA00000210160DFF8800400210160DFF87C047C
:101EB00000210170DFF8A004002101707047DFF8F5
:101EC0007C1400220A7000210800C0B2082806D243
:101ED000C0B2DFF86C1400224254401CF5E7DFF872
:101EE000381400220A70DFF8241400220A70DFF888
:101EF000241400220A60DFF80C1400220A607047E4
:101F000010B586B00320049000200390802002903A
:101F1000DFF8480401904FF6FF7000903F23DFF890
:101F2000402400210FF25D1000F086FC040005AA99
:101F3000DFF830143F2000F0AEFD06B010BD10B544
:101F400086B0032004900020039080200290DFF8E8
:101F5000180401904FF6FE7000903E23DFF80C2429
:101F600000210FF2491000F067FC040005AADFF819
:101F700000143E2000F08FFD06B010BDF8B54FF400
:101F8000DC61DFF8F00300F035F84FF48071DFF822
:101F9000800300F02FF800200400E4B2152C14D2C6
:101FA000601C0500E4B25020DFF8C81300FB0410E9
:101FB0000600EDB25020DFF8BC1300FB051007004F
:101FC000776139A0B064641CE7E7E4B25020DFF821
:101FD000A41300FB041006000020706132A0B0645E
:101FE000DFF8540300210160DFF88C03DFF884136D
:101FF0000160F1BD89B2002904D000220270401CAA
:10200000491EF7E7704710B5002400F01FFB0400DD
:102010004A480078002820D14948007800281CD17F
:1020200000F01FF8B9480078B94951F82000B949C3
:102030000860B6480078B849097888420DD0B5489C
:102040000068406B401CB34909684863B3480068A6
:10205000401CB249086000F012FB200000F0FAFAC0
:1020600010BDB6490978B74A895C0800C0B2C0B251
:10207000B349415CB34A895C11EBC001A34A1170BA
:102080007047000038B50400002500F0DFFA0500B5
:10209000A4480068401CA3490860280000F0DAFA50
:1020A00000F08BF9F1E700003F00000038B50500B3
:1020B00000249E480078002803D1C82000F01CFBB3
:1020C000F7E7994800686421B0FBF1F09649086091
:1020D00095480068002805D1A84800210170FF201C
:1020E00000F077FD00F0B2FA04008F480068642128
:1020F00048438C490860200000F0ACFA00F0A6FAD2
:1021000004009448874909680160864800210160FD
:10211000200000F09FFA8F48006883490968B0FBEF
:10212000F1F0D0F164009549087000F050F900F02A
:1021300009F8642000F0E0FAE0E700000633002030
:10214000073300207CB500200600F6B2402E1AD2DC
:1021500000A93000C0B200F0E7FC0500EDB2002D90
:102160000FD1F6B26A4850F826000400002C08D0BF
:10217000012C06D0E068A16811EB80002064019872
:102180006064761CE1E773BD2DE9F74F05001E0082
:102190000C9FDDF834800E9C5FF0000A00F056FAC8
:1021A0008246754800688146B9F1000F00F0A380AF
:1021B000D9F8140070490860504600F04BFA0198B5
:1021C000C9F8000089F82E50002089F82C00002062
:1021D00089F82D000020C9F82800C9F80480C9F842
:1021E0000C700298C9F80800A9F81040A9F812600C
:1021F000002089F83300EDB2E80889F8300015F0C6
:10220000070089F82F00012099F83010884089F8DC
:102210003200012099F82F10884089F83100002001
:10222000C9F81C000020C9F820000020C9F82400CB
:102230000020C9F834000020C9F83C000020C9F88B
:1022400038000020C9F840000020C9F8440034A03C
:10225000C9F84800002083465FFA8BFBBBF1000FF2
:1022600008D15FFA8BFB19EB8B000021C1641BF1D5
:10227000010BF1E7484600F0F5F800F0E7F9824677
:10228000EDB2234840F82590504600F0E3F9484667
:1022900000F087F800F0DAF9824627480068C9F8AC
:1022A00014000020C9F8180023480068002803D053
:1022B00021480068C0F818901F48C0F800901F48D7
:1022C000007899F8321008431C49087099F83000DA
:1022D0001B49405C99F83110084399F83010184AAE
:1022E00088541B480078401C19490870504600F07B
:1022F000B1F9002003E0504600F0ACF94220BDE8FF
:10230000FE8F0000E83200200B330020093300204C
:10231000842F0020F032002008330020D432002027
:102320003F000000E4320020DC32002005330020B2
:10233000F83200200D330020F43200200A33002050
:10234000AC3200208C44000884300020D8320020B9
:102350000C330020E03200200E330020842D0020BA
:10236000802F002088470008842B0020802D00202B
:1023700098470008A4080020EC3200200433002015
:102380004E4A11004FF400721000002804D0401E85
:1023900000220A60091DF8E7494A4A4B136070475A
:1023A000704710B50400200000F0A6FC10BD10B569
:1023B0000400200000F0A1FC10BD80B500F09EFCE0
:1023C00001BD10B50400200000F09AFC10BD80B5DE
:1023D00000F095FC01BD30B40400151D2800C008B4
:1023E000C000001F5FF080750560001F0460001FC3
:1023F000354D0560001F5FF012350560001F5FF06E
:1024000003350560001F5FF002350560001F5FF0B7
:1024100001350560001F0160001F5FF01135056088
:10242000001F5FF010350560001F5FF00935056083
:10243000001F5FF008350560001F5FF0073505607D
:10244000001F5FF006350560001F5FF00535056071
:10245000001F5FF00435056030BC704780B500F0A8
:1024600050FC01BD10B50400200000F04BFC10BD75
:1024700080B500F048FC01BD10B500F0E7F804009D
:10248000FFF7AEFA200000F0E5F8FFF749FBFFF791
:10249000B9FA10BD411E0D4A11600D49FF220A70A4
:1024A0000C49096851F005010A4A11600949096897
:1024B00051F00201074A116070470000A40000209B
:1024C000FC320020A0080020A32C000814E000E04B
:1024D00023ED00E010E000E02E4908002E4908003E
:1024E0002E4908002E4908002E4908002E490800F0
:1024F0002E4908002E4908002E4908002E490800E0
:102500002E4908002E4908002E4908002E490800CF
:102510002E4908002E4908002E4908002E490800BF
:102520002E4908002E4908002E4908002E490800AF
:102530002E4908002E4908002E4908002E4908009F
:102540002E4908002E4908002E4908002E4908008F
:102550002E4908002E4908002E4908002E4908007F
:102560002E4908002E4908002E4908002E4908006F
:102570002E4908002E4908002E4908002E4908005F
:102580002E4908002E4908002E4908002E4908004F
:10259000704700BF32100008D84700081E1100081D
:1025A0004E110008EE1000086A1200081616000806
:1025B0005E180008DA180008DE180008B6190008CE
:1025C000EE3000087A360008CA3A0008EE400008EB
:1025D000C6450008224700082E4700085A47000851
:1025E000F0480008F2480008F4480008F6480008DF
:1025F000F8480008FA480008FC480008FE480008AF
:10260000004900080249000804490008064900087A
:10261000084900080A4900080C4900080E4900084A
:10262000104900081249000814490008164900081A
:10263000184900081A4900081C4900081E490008EA
:10264000204900082249000836490008EFF31080AD
:1026500072B6704780F3108870471D48FF210170E3
:10266000002080F309881B48016881F308881A4814
:102670000121017019481A49016062B6FEE7174846
:10268000174901607047154815490160704772B6D7
:10269000EFF3098028B1203880E8F00F114909686C
:1026A000086000B5104880475DF804EB0F481049FA
:1026B0000A7802700B480F490A680260106890E8B7
:1026C000F00F203080F309884EF0040E62B6704798
:1026D00022ED00E0FC3200200B33002004ED00E08E
:1026E00000000010E83200205D24000808330020BC
:1026F00009330020F032002070B50400002648485D
:10270000007800282ED14748007800282AD1002CD4
:1027100028D0FFF79BFF06004348006890F8300080
:102720000500EDB24148285C3F49096891F8311035
:102730008843EDB23D496854EDB23C48285C00281E
:1027400008D13B4800783849096891F8321088432D
:10275000374908703448006884623000FFF77AFF18
:10276000FFF751FC70BD2DE9F04104000D0016008B
:102770001F002B480078002801D0552041E029484F
:102780000078002801D032203BE0E4B2002C0AD1CE
:10279000EDB2002D07D1F6B2002E04D1BFB2002F4A
:1027A00001D154202DE0EDB23C2D01D3512028E081
:1027B000F6B23C2E01D3522023E04FF47A70BFB220
:1027C000874201D353201CE0E4B24FF46160EDB2C4
:1027D0003C2101FB05F100FB0410F6B230184FF468
:1027E0007A71BFB24FF47A7202FB07F24FF47A7338
:1027F000B2FBF3F201FB002080464046FFF77CFF6E
:102800000020BDE8F08138B504000025FFF71EFF69
:102810000500084804602800FFF71CFF31BD0000D8
:102820000633002007330020E8320020AC320020BD
:102830000A330020F83200202DE9F74F84B01E0043
:10284000109C119FDDF84880DDF84C90149D5FF0DE
:10285000000BF6B2402E01D32A2059E0FFF7F6FE16
:102860008346DFF868040078002804D05846FFF754
:10287000F1FE3C204CE0F6B2DFF83C0450F82600B4
:10288000002841D1F6B2DFF83004012140F82610CB
:102890005846FFF7DFFE2A0092B24146380000F0AA
:1028A0001FFA2B009BB2069A05990498FFF793FD37
:1028B0000390ADB20295CDF80490CDF800802300CE
:1028C0009BB23A0003993000C0B2FFF75DFC82462C
:1028D0005FFA8AFABAF1000F07D1DFF8EC0300784B
:1028E00001280ED1FFF78FFB0BE0FFF7AFFE834609
:1028F000F6B2DFF8C403002140F826105846FFF76F
:10290000A9FE5046C0B203E05846FFF7A3FE2820B8
:1029100007B0BDE8F08F70B504000026DFF8AC0307
:102920000078002801D04020B4E0E4B23F2C01D16F
:102930003E20AFE0E4B23F2C04D3E4B2FF2C01D040
:102940002A20A7E0FFF782FE0600E4B2FF2C05D1A3
:10295000DFF86803006890F82E000400E4B2DFF8A6
:10296000580350F824000500002D04D13000FFF773
:1029700071FE43208EE0012D04D13000FFF76AFE86
:102980003D2087E095F83000DFF83413405C95F87F
:102990003110884395F83010DFF82423885495F8D7
:1029A0003000DFF81C13405C002808D1DFF8140366
:1029B000007895F832108843DFF808130870E8694A
:1029C000002803D0E9692800FFF7CAF9286A00281F
:1029D00003D0296A2800FFF7DEF90020A862002052
:1029E00085F82C00002085F82D00DFF8E40200783F
:1029F000FF2806D0DFF8D8020078401CDFF8D0129C
:102A000008703000FFF726FEFFF705F9FFF71EFEFE
:102A10000600DFF8BC020078002806D0DFF8B0021C
:102A20000078401EDFF8A81208702800FFF7BFFCEE
:102A3000DFF8A0020078401EDFF898120870E4B2B8
:102A4000DFF87402002140F82410A869002807D19B
:102A50006869002181616869DFF87C12086005E01F
:102A6000A869696941616869A9698161DFF86C02D7
:102A700000686861DFF8640205602AA0A86430007D
:102A8000FFF7E8FDDFF840020078012801D1FFF7E9
:102A9000BAFA002070BD2DE9F04104000D001600C7
:102AA0005FF00008E4B2402C05D3E4B2FF2C02D062
:102AB0002A20307034E0002D02D10C2030702FE03D
:102AC000DFF808020078002802D01220307027E0DA
:102AD000FFF7BCFD8046E4B2FF2C05D1DFF8DC0136
:102AE000006890F82E000400E4B2DFF8CC0150F842
:102AF00024000700002F05D14046FFF7ABFD43201F
:102B000030700DE0012F05D14046FFF7A3FD4320B3
:102B1000307005E0BD644046FFF79CFD002030703A
:102B2000BDE8F0813F0000002DE9F04704000D00F2
:102B30005FF0000AE4B2402C04D3E4B2FF2C01D0D1
:102B40002A2044E0002D01D1092040E00020286027
:102B500000206860FFF77AFD8246E4B2FF2C04D1C2
:102B60005648006890F82E000400E4B2524850F82D
:102B700024000600002E04D15046FFF76BFD4320D1
:102B800025E0012E04D15046FFF764FD43201EE0EE
:102B9000307CC00704D45046FFF75CFD452016E0AA
:102BA00000208046F0688146B06807005046FFF775
:102BB00051FD3800071D0068002802D118F10108F6
:102BC000F7E7C5F80080B9EB080068600020BDE8B1
:102BD000F0872DE9F04104005FF00008E4B23F2CDB
:102BE00001D147205BE0E4B23F2C04D3E4B2FF2CD8
:102BF00001D02A2053E0FFF729FD8046E4B2FF2CE4
:102C000007D12E48006890F82E000400012005002E
:102C10000BE02A48006890F82E00E4B2844202D10A
:102C20000120050001E000200500E4B2224850F830
:102C300024000600002E04D14046FFF70BFD48207B
:102C40002DE0012E04D14046FFF704FD432026E08D
:102C500096F830000700FFB21948385C96F831103A
:102C60008843FFB216497854FFB21548385C0028F3
:102C700006D11448007896F832108843114908703C
:102C800096F82C0050F0080086F82C004046FFF71C
:102C9000E1FCEDB2012D01D1FFF7B5F90020BDE84F
:102CA000F08180B505480068FFF78BFBFF20FFF738
:102CB00032FE01BD00000000842F0020E832002019
:102CC000AC3200200A3300200B33002006330020F2
:102CD000073300200C330020F4320020EC320020B7
:102CE000D30708D5930706D5002904D0491E002331
:102CF0000360001DF8E770477047704770477047E2
:102D00007047704770477047DFF8780300688004A9
:102D100001D4012000E000207047DFF86C03006858
:102D2000C00701D5012000E000207047DFF85C03F8
:102D30000068C00501D4012000E000207047DFF8E2
:102D40004C030068000401D4012000E0002070471B
:102D5000DFF83C030068000701D4012000E00020F8
:102D60007047DFF828030068400401D4012000E028
:102D700000207047DFF814030068800401D40120AC
:102D800000E000207047DFF804030068000601D46B
:102D9000012000E00020704780B5FFF7B5FF002854
:102DA00005D0FFF7BAFF002801D0012000E0002085
:102DB00002BD80B5FFF7A8FF002805D0FFF7ADFFE3
:102DC000002801D0012000E0002002BD80B500F005
:102DD0007AF800F02EF801BDDFF8B812C97ADFF8F2
:102DE000B4228854AB49C97A491CAA4AD172C9B2E3
:102DF0000A2902D3A7490022CA727047A548807ADF
:102E0000A44AD27A904201D1002011E0A148807AF0
:102E1000A04A805C01009F48807A401C9D4A9072C5
:102E2000C0B20A2802D39B48002282720800C0B2B6
:102E3000704780B501214FF49A7000F0C7F9032064
:102E40008DF8020004208DF803004FF40050ADF817
:102E5000000000A9914800F0D5F90120ADF800006C
:102E600000A98F4800F0CEF94FF48070ADF8000053
:102E700000A98C4800F0C6F94FF40040ADF80000FE
:102E800000A9884800F0BEF90820ADF8000000A9AC
:102E9000854800F0B7F94FF48040ADF8000000A974
:102EA000804800F0AFF94FF40050ADF8000000A9E1
:102EB0007C4800F0A7F98020ADF8000000A979480F
:102EC00000F0A0F901BD734900228A727149002205
:102ED000CA72704900220A7300210800C0B20A2891
:102EE0001FD2C0B26C4911EB001164220A81C0B23A
:102EF000694911EB001102220A71C0B2664911EB57
:102F0000001100228A72C0B2634911EB0011002245
:102F1000CA72C0B2604911EB001100220A73401C52
:102F2000DCE75D4964220A875B49052281F83B2082
:102F300059496422A1F848205749052281F84B20BD
:102F400055496422A1F858205349052281F85B2095
:102F500051496422A1F868204F49052281F86B206D
:102F60004D49524A0A604C49514A0A614A49514AFC
:102F70000A624949504A0A634749504A0A64464925
:102F80004F4A0A6544494F4A0A6643494E4A0A670E
:102F900041494E4AC1F880203F494D4AC1F890202E
:102FA000704738B50400E4B23B4810EB041005004C
:102FB00028688047002845D02879052802D20520B6
:102FC00028715DE028790A2803D22879401C2871ED
:102FD00056E0A87A002809D10120A872E4B20320A3
:102FE00000FB04F0401CC0B2FFF7F6FE2889012860
:102FF00046D3E888298988420FD2E888401CE880B7
:10300000298980B288423BD1E4B2032000FB04F05E
:10301000C01CC0B2FFF7E0FE32E0E87A01282FD3EF
:10302000287B401C2873E97AC0B2884228D300204C
:103030002873E4B2032000FB04F0401CC0B2FFF789
:10304000CBFE1DE02879062802D30520287113E065
:103050002879002803D02879401E28710CE0A87A2E
:10306000012809D10020A872E4B2032000FB04F07B
:10307000801CC0B2FFF7B0FE0020E880002028735B
:1030800031BD00000810014008080140082001403F
:10309000081401408C3200207431002000100140DF
:1030A000000801400020014000140140092D0008E3
:1030B0001B2D00082D2D00083F2D0008512D000864
:1030C000632D0008752D0008872D0008992D000834
:1030D000B32D000810B500200400E4B20A2C05D27C
:1030E0002000C0B2FFF75DFF641CF6E710BD0000D2
:1030F00030B400210022002300243C4D2D6815F03F
:103100000C0529000D00002D04D0042D05D0082D3C
:1031100006D026E0364D056025E0354D056022E0FD
:10312000324D2D6815F470152A00304D2D6815F4B8
:1031300080352B00920C921C002B04D12D4D05FBE9
:1031400002F505600CE0294D2D68AD0304D5294D2D
:1031500005FB02F5056003E0254D05FB02F5056062
:1031600001E0234D0560214D2D6815F0F005290083
:103170000909214D4D5D2C000568E54045601B4D5A
:103180002D6815F4E0652900090A1B4D4D5D2C00E2
:103190004568E5408560154D2D6815F4605529009A
:1031A000C90A154D4D5D2C004568E540C5600F4DC1
:1031B0002D6815F440452900890B104D4D5D2C00FC
:1031C000C568B5FBF4F5056130BC7047C9B200298C
:1031D00005D00B4A12680243094B1A6004E0084A02
:1031E00012688243064B1A607047000004100240C8
:1031F00000127A0000093D0090000020A00000208D
:1032000018100240F0B500270022002300240025FA
:10321000002691F803C01CF00F0C674691F803C01C
:103220005FEACC6C03D591F802C05CEA070791F81D
:1032300000C05FEA0C6C3AD0D0F800C065465FF081
:10324000000C6346082B31D25FF0010C1CFA03FC22
:103250006446B1F800C014EA0C0C6246A24223D1C5
:103260005FEA830C64465FF00F0C1CFA04FC6646B0
:10327000B54317FA04FC5CEA050591F803C0BCF1FC
:10328000280F06D15FF0010C1CFA03FCC0F814C033
:103290000AE091F803C0BCF1480F05D15FF0010CC2
:1032A0001CFA03FCC0F810C05B1CCBE70560B1F84A
:1032B00000C04FF4807EF4453FD3D0F804C065468B
:1032C0005FF0000C6346082B36D25FF0010C13F15F
:1032D000080E1CFA0EFC6446B1F800C014EA0C0C8F
:1032E0006246A24226D15FEA830C64465FF00F0C6F
:1032F0001CFA04FC6646B54317FA04FC5CEA0505B3
:1033000091F803C0BCF1280F07D15FF0010C13F155
:10331000080E1CFA0EFCC0F814C091F803C0BCF1F2
:10332000480F07D15FF0010C13F1080E1CFA0EFCD8
:10333000C0F810C05B1CC6E74560F0BD00B587B0A3
:10334000FEF73AFB03200490002003904FF48070B6
:103350000290A04801900020009000239E4A002186
:103360000FF22100FFF768FA05AA9C490020FFF739
:1033700092FB0020FFF747FAFEF78EFB002007B014
:1033800000BD000010B5040000F056F900F076F919
:1033900000F066F9FEF7A1FB00F084F8012000F0D0
:1033A00070FA4FF4FA73002200210020FFF7DBF9D6
:1033B000F4E738B50400FFF78DFEFFF71FFD0500A9
:1033C000EDB2012D06D38DF8005000A984480068A5
:1033D00000F048FB0A23002200210020FFF7C3F978
:1033E000E9E738B5040000AA4FF47A717C48006818
:1033F00000F0A1FA007805009DF80000002812D125
:10340000EDB2012D02D100F0B3F8ECE7EDB2042DDE
:1034100003D1744800F025F8E5E7EDB2072DE2D1BD
:1034200000F054FBDFE7032000F02BFADBE710B5D8
:103430000400042000F025FA4FF4FA730022002162
:103440000020FFF790F9F4E710B50400022000F027
:1034500018FA4FF4FA73002200210020FFF783F9D5
:10346000F4E70EB470B597B004001BA805002B005C
:103470002200512101A800F041FB060000AA002112
:103480005948006800F081FB01A94FA000F030FC12
:103490005548006800F0FAFB8DF8000017B070BCCA
:1034A0005DF810FB00B587B0002000F01BFA4C4916
:1034B0000860012000F040FB4B49086003200490A5
:1034C000002003904FF48070029048480190022041
:1034D00000900223464A00214648FFF7ADF905AAAD
:1034E00045490220FFF7D7FA0320049000200390FB
:1034F0004FF480700290414801903C2000903C23A2
:103500003F4A00213F48FFF797F905AA2FA13C2029
:10351000FFF7C1FA03200490002003904FF480705D
:10352000029039480190032000900323374A00217C
:103530003748FFF781F905AA25A10320FFF7ABFA69
:1035400003200490002003904FF4807002903148D3
:1035500001900120009001232F4A00212F48FFF7FE
:103560006BF905AA2E490120FFF795FA07B000BDB7
:103570001FB52C4804002C48FFF773FF2B48FFF7BA
:1035800070FF2B48FFF76DFF0A20FFF7B5F8002CFE
:1035900018D002A994F82E00FFF7C6FAA06C01908B
:1035A0000398642148430399029A5118B0FBF1F043
:1035B0000090029B039A94F82E101E48FFF751FFCB
:1035C000A469E4E71FBD0000257300004C454400DA
:1035D000434F4D00840F002080130020B84700089F
:1035E000B432002068470008B8320020841300205D
:1035F00080170020E3330008784700088417002074
:10360000801B002049340008841B0020801F0020FC
:103610002F340008841F002080230020B3330008CB
:10362000D0470008A4080020C8450008004600084C
:1036300030460008B846000880B54FF4407000F0EE
:1036400069FB00F0ABFB00F0C5F8FFF7BFFB01BD65
:1036500000B585B000A8FFF74BFD019805B000BD8F
:1036600038B5FFF7F5FF04004FF47A70B4FBF0F0C3
:1036700005002800FEF70EFF31BD050080B500F003
:1036800054F800F059F800F04CF801BD10B50024D2
:1036900000F0D4FC040000F00FF81021DFF8100156
:1036A00000F0E2FC00F01CF8200000F0CBFC10BDA4
:1036B000DFF800110860704780B541480088401C61
:1036C0003F4908803F480088002803D100F027FDCB
:1036D0003D4908603B480088401C3A49088001BDCC
:1036E00010B538480088401E3649088035480088A3
:1036F000002815D100F013FD3449086033480068F4
:1037000031490968401A04002B480068A04201D2E0
:103710002948046029480068A04201D22748046073
:1037200010BD80B5FFF7B2FF01BD80B52148002173
:10373000016000F0DDFC01BD70B5002620480021CD
:1037400001802048002101801F48002101601F489E
:103750000021016018480021016018480021016023
:103760001B48002101600020040000F067FC0600F7
:1037700000200500ADB2002D0BD10F4800210160E3
:10378000FFF79AFFFFF7ACFF0B48006804196D1CA8
:10379000F0E70120B4FBF0F00D4908600648002175
:1037A0000160064800210160300000F04BFC70BD54
:1037B0009C320020BC320020CC320020D0320020CD
:1037C0000033002002330020C0320020C432002029
:1037D000C832002080B501218020FFF7F7FC0120CE
:1037E00000F02FF8022000F02CF8032000F029F858
:1037F000042000F026F803208DF8020010208DF838
:1038000003004FF40060ADF8000000A93248FFF754
:10381000F9FC8020ADF8000000A92F48FFF7F2FC6A
:103820004FF48070ADF8000000A92B48FFF7EAFCC8
:103830004FF40070ADF8000000A92748FFF7E2FC44
:1038400001BD401EC0B2002804D124494FF40062DB
:103850000A6015E0C0B2012803D1204980220A6025
:103860000EE0C0B2022804D11C494FF480720A60F5
:1038700006E0C0B2032803D118494FF400720A6071
:103880007047C0B2012806D11549096891F400615A
:10389000134A11601EE0C0B2022806D1104909681F
:1038A00091F080010E4A116014E0C0B2032807D1E4
:1038B0000B4909684FF480725140094A116009E0D0
:1038C000C0B2042806D1064909684FF4007251407D
:1038D000034A116070470000001C0140101C0140A9
:1038E0000C1C014070B5040000265A4800780028DE
:1038F00001D000201EE0FEF7A9FE06005648006831
:10390000050055480068002804D053480068406806
:10391000514908603000FEF79DFE002D09D00120BE
:103920002870002028816C6049A068612800FEF79B
:1039300058FA280070BD2DE9F04104000D00160072
:103940005FF00008002C03D10420307000207BE0E1
:103950002078012803D001203070002074E03D4819
:103960000078002803D00220307000206CE03B4833
:103970000078002803D00D203070002064E0FEF7AE
:1039800065FE804660680700002F08D00020606058
:103990004046FEF75FFE00203070380054E03048AB
:1039A000006890F82C0050F002002D49096881F859
:1039B0002C002B480068002180F82D102848006852
:1039C00085622000FEF785F94046FEF743FEFEF7CC
:1039D0001AFBFEF73BFE80462148006890F82D0058
:1039E000002802D0022807D00BE01D480068406A7A
:1039F0000700002030700DE0002007000E2030701E
:103A000008E0210016480068FEF7AAF90020070028
:103A10000A20307012480068002180F82C101048ED
:103A20000068002180F82D100D4800680021C16158
:103A30000B480068002101620948006800214162CA
:103A40004046FEF707FE3800BDE8F08100000000A8
:103A50003F00000006330020D8320020073300204A
:103A6000E8320020F8B504000D000026002C01D13A
:103A7000042029E0002D01D1032025E02078012831
:103A800001D0012020E0FEF7E1FD0600A07A002829
:103A90000DD00023022229002000FEF7BDF8070008
:103AA0003000FEF7D7FDFEF7AEFA00200CE06068AC
:103AB000002804D03000FEF7CDFD142004E065603E
:103AC0003000FEF7C7FD0020F2BD01000948006884
:103AD00050F00400074908600648006850F00200F2
:103AE000044908600448006850F004000249086076
:103AF00030BF70470070004010ED00E008B584B0A2
:103B00000023029311B90093019302E00090481E34
:103B1000019004AB00A9074878441830FCF708FB73
:103B2000009909B100220A70002858BF029805B018
:103B300000BD00BF9FD3FFFF70B5040000264F48B3
:103B40000078002801D000201EE0FEF77FFD06006F
:103B50004B48006805004A480068002804D04848DF
:103B600000684068464908603000FEF773FD002D8C
:103B700009D0032028702C81002068603EA0686175
:103B80002800FEF72EF9280070BDF8B504000D00DE
:103B900016000027002C02D1042030706AE0207843
:103BA000032802D00120307064E0344800780028F7
:103BB00002D0022030705DE032480078002802D048
:103BC0000D20307056E0FEF741FD070020890028E7
:103BD00008D02089401E20813800FEF73BFD0020E0
:103BE000307047E02848006890F82C0050F0010041
:103BF0002549096881F82C0023480068002180F8D5
:103C00002D102148006885622000FEF762F8380018
:103C1000FEF720FDFEF7F7F9FEF718FD07001A483A
:103C2000006890F82D00002802D0022803D005E09B
:103C30000020307009E00E20307006E021001248AC
:103C40000068FEF78DF80A2030700F4800680021E8
:103C500080F82C100C480068002180F82D100A48CC
:103C600000680021C1610848006800210162380035
:103C7000FEF7F0FCF1BD00003F000000063300201D
:103C8000D832002007330020E832002070B504004D
:103C90000025002C01D1042029E02078032801D040
:103CA000012024E0FEF7D2FC0500A07A00280DD008
:103CB0000023012200212000FDF7AEFF06002800AE
:103CC000FEF7C8FCFEF79FF9002010E020894FF6B0
:103CD000FF71884207D02089401C20812800FEF710
:103CE000B9FC002003E02800FEF7B4FC332070BDCF
:103CF0000EB400B582B003A9009100AB02460121C9
:103D0000034878440A30FCF713FA06BC5DF810FB50
:103D1000350A00001C4901431C4A11607047F0B489
:103D2000002300210F22C478002C20D0174C2468D7
:103D300014F4E064D4F5E064240A2300D3F104040D
:103D40002100DA4044788C402300847814402343D7
:103D50001B0104780E4D6355047864110D4D012646
:103D6000077817F01F07BE4045F8246009E0047883
:103D70006411094D0126077817F01F07BE4045F86A
:103D80002460F0BC704700000000FA050CED00E074
:103D900000E400E000E100E080E100E080B500F038
:103DA0001BF800F046F800F003F800F08CF801BDB5
:103DB00080B501210820FFF709FA03208DF80200E1
:103DC00010208DF803000420ADF8000000A9DFF8F2
:103DD0005002FFF717FA01BD9048924901608F48E1
:103DE000914941608D48914981608C484FF48061D0
:103DF00081818A484FF48061C18188480021018215
:103E000086480021418285480021C18283480021E3
:103E100001838248002141838048002181827F48BC
:103E20000021C1617D48002101627C48002141627E
:103E3000704700B585B001210520FFF7C7F90121C2
:103E40004FF48040FFF7C2F94FF40070ADF8000066
:103E500018208DF8030003208DF8020000A9744893
:103E6000FFF7D0F94FF48060ADF8000004208DF822
:103E7000030000A96E48FFF7C5F95FF4E130019037
:103E80000020ADF808000020ADF80A000020ADF8D1
:103E90000C000020ADF810000C20ADF80E0001A9B8
:103EA000604800F047F9012240F225515D4800F0DA
:103EB000C1F901215B4800F0AFF94021594800F0F9
:103EC000FCF905B000BD80B525208DF8000000206C
:103ED0008DF8020001208DF8030000A8FFF71FFFF6
:103EE00001BD38B5040040F22551206800F0EBF91F
:103EF00000281DD0206800F0CCF90500E08AA168F8
:103F00004554E08A401CE082E18980B2884201D3B6
:103F10000020E082608BE189884202D2608B401CE5
:103F20006083606A002803D02800C0B2616A8847B5
:103F300040F22771206800F0C6F9002823D0A08A3B
:103F400000280CD1002240F22771206800F072F99D
:103F5000012240F22661206800F06CF93CE0608AA2
:103F60006168415C89B2206800F08FF9608A401C6A
:103F70006082A18980B2884201D300206082A08A39
:103F8000401EA08228E040F22661206800F09BF9E4
:103F9000002821D0A08A00280BD1002240F22661FF
:103FA000206800F047F9206A002815D0206A804771
:103FB00012E0608A6168415C89B2206800F065F9AE
:103FC000608A401C6082A18980B2884201D30020AF
:103FD0006082A08A401EA08231BD10B5FEF736FB7C
:103FE0000400FDF7FDFC2000FEF734FB0B48FFF753
:103FF00078FFFDF707FD10BD38B504000D00210066
:10400000C9B289B2074800F040F94021054800F0E4
:1040100044F90028F9D0200032BD000064320020AD
:10402000000C014000380140842300208427002038
:104030000008014072B6704762B67047EFF3108017
:1040400072B6704780F31088704730BF704720BF4A
:104050007047B0FA80F0704790FAA0F0B0FA80F0A4
:10406000704790FAA0F0704738B504000D002A00A0
:104070000021200000F001F831BD2DE9F0415FF092
:10408000000E74465FF0000EF446BCF1040F05D23A
:104090002402C9B20C431CF1010CF6E713005FF0D7
:1040A000040EB0FBFEF808FB1E085FFA88F84746CE
:1040B0000600002F0BD0BC46002B08D0BCF1040F2B
:1040C00005D23170761C5B1E1CF1010CF4E7350043
:1040D000042B03D32C602D1D1B1FF9E72E00002B92
:1040E00003D03170761C5B1EF9E7BDE8F0813F001C
:1040F00010B5FFF7ADFA04000B48006850F080706F
:10410000094908600948002101600948006850F029
:104110000100074908602000FFF7CAFA10BD0349F3
:104120000968080070470000FCED00E0041000E0A2
:10413000001000E02DE9F04786B004000D000026D5
:1041400000275FF000085FF000095FF0000AA8890F
:104150000028A246208A06004CF6FF700640E88838
:1041600006432682A08906004EF6F3100640A88872
:1041700029890843698908430643A681A08A060065
:104180004FF6FF400640A8890643A68200A8FEF726
:10419000AFFF2048824502D10398070001E0029852
:1041A0000700A089000408D5192000FB07F0296842
:1041B0004900B0FBF1F0804607E0192000FB07F052
:1041C00029688900B0FBF1F080466420B8FBF0F06C
:1041D000000106003009642101FB10808146A0899E
:1041E000000409D55FEAC90032306421B0FBF1F068
:1041F00010F00700064308E05FEA0910323064213E
:10420000B0FBF1F010F00F000643268106B0BDE8C8
:10421000F087000000380140C9B2002904D082892B
:1042200052F40052828104E082894DF6FF731A40F5
:1042300082817047F0B4002300240025002640F658
:104240006A1789B2B94206000F00FFB27F09FFB2B8
:104250003B0089B211F01F073C000127A7403D0039
:10426000012B01D10C3604E0022B01D1103600E005
:104270001436D2B2002A03D037682F43376002E0E9
:104280003768AF433760F0BC7047CA05D20D8280F3
:1042900070478088C005C00D7047020000204FF4B1
:1042A000007389B2994213880B4202D0012318008F
:1042B00001E000231800C0B2704789B28A0589B2B4
:1042C000CA430280704770B4020000230025002416
:1042D000002040F66A1689B2B1420E00F6B27609A5
:1042E000F6B2340089B211F01F063500012616FA25
:1042F00005F5012C02D19689354006E0022C02D149
:10430000168A354001E0968A354089B20E0AB6B267
:104310003300012616FA03F316883340002D04D02B
:10432000002B02D00126300001E000263000C0B290
:1043300070BC704780B54E48006850F001004C4991
:1043400008604C4800684C4908404A4908604848A1
:1043500000684A490840464908604548006830F40A
:104360008020434908604348006830F4FE0041491A
:10437000086043485FF41F01016000F005F8414800
:104380005FF00061016001BD80B500F001F801BD82
:1043900082B000200190002000903548006850F461
:1043A0008030334908603248006810F400300090D3
:1043B0000198401C01900098002803D10198B0F5A5
:1043C000A06FF0D12A480068800302D50120009038
:1043D00001E0002000900098012847D12A48006899
:1043E00050F01000284908602748006880088000C5
:1043F000254908602448006850F0020022490860FE
:104400001C481C49096801601A481A49096801607A
:104410001848006850F48060164908601548006824
:1044200030F47C10134908601248006850F4E8101A
:10443000104908600E48006850F080700C49086010
:104440000B4800688001FBD50A480068800880009E
:10445000084908600748006850F0020005490860F4
:104460000448006810F00C000828F9D102B0704729
:1044700000100240041002400000FFF8FFFFF6FEAB
:104480000810024008ED00E000200240000001009A
:10449000020001000300010002000100040001000D
:1044A00002000100030001000200010005000100FC
:1044B00002000100030001000200010004000100ED
:1044C00002000100030001000200010006000100DB
:1044D00002000100030001000200010004000100CD
:1044E00002000100030001000200010005000100BC
:1044F00002000100030001000200010004000100AD
:104500000200010003000100020001000700010099
:10451000020001000300010002000100040001008C
:10452000020001000300010002000100050001007B
:10453000020001000300010002000100040001006C
:10454000020001000300010002000100060001005A
:10455000020001000300010002000100040001004C
:10456000020001000300010002000100050001003B
:10457000020001000300010002000100040001002C
:10458000020001000300010002000100704708481A
:1045900000221100C9B22A2909D2C9B20A5C054B0E
:1045A0001A80054A12885206FBD5491CF2E7FEE73D
:1045B000604600080438014000380140FEE7FEE78D
:1045C000FEE77047704701003D3D3D3D3D3D3D3DAF
:1045D0003D3D3D3D3D3D3D3D3D3D3D3D3D3D3D3D0B
:1045E0003D3D3D3D3D3D3D3D3D3D3D3D3D3D3D3DFB
:1045F0003D3D3D3D3D3D3D3D3D3D0D0A0000000042
:104600002020D3C5CFC8BCB6202020CAB9D3C3D57B
:10461000BB2020CAA3D3E0D5BB2020B0D9B7D6B1E8
:10462000C8202020C8CECEF1C3FB0D0A0000000038
:1046300020205072696F202020202055736564204F
:1046400020202046726565202020205065722020A1
:10465000202020205461736B6E616D650D0A00008F
:104660000D0A456E74657220486172644661756C0E
:10467000745F48616E646C65722C20537973746545
:104680006D2048616C742E0D0A00000010B50849B9
:1046900079441C31074C7C441A34A14206D0081DD1
:1046A0000A68511888470146A142F8D110BD00BFE1
:1046B000300000005000000020202025326420201F
:1046C000202025356420202020253564202020202E
:1046D000253032642525202020202025730D0A0056
:1046E0009BC7FFFF6C320000A40000200000000008
:1046F00047C7FFFFA40000004002000000000020A8
:104700000000000000F009F8002801D0FFF7BEFF0C
:104710000020FEF713FE00F002F80120704700F0C1
:1047200001B800000746384600F002F8FBE7050034
:1047300080B5C046C046024A11001820ABBEFBE758
:104740002600020038B504460D46284600F006F85B
:10475000A84218BF0024204632BD01000149FFF7DE
:104760004BBC00BF500000204B32B0B4BCFCB0B416
:10477000CFC20D0A000000005573657220496E74A7
:10478000657266616365000075432F4F532D49497B
:104790002049646C6500000075432F4F532D494933
:1047A00020537461740000000148804701480047AD
:1047B00035430008C5470008537461727420546182
:1047C000736B0000C046C046C046C046FFF79AFF64
:1047D0004B65795363616E0078563412FFF7D6BE8D
:1047E000FFF7D5BEFFF7EABEFFF7E9BEFFF7E8BE69
:1047F000FFF7E7BEFFF7E6BEFDF749BFFDF73CBE9A
:10480000FFF7FEBFFFF7FEBFFFF7FEBFFFF7FEBFDC
:10481000FFF7FEBFFFF7FEBFFFF7FEBFFFF7FEBFCC
:10482000FFF7FEBFFFF7FEBFFFF7FEBFFFF7FEBFBC
:10483000FFF7FEBFFFF7FEBFFFF7FEBFFFF7FEBFAC
:10484000FFF7FEBFFFF7FEBFFFF7FEBFFFF7FEBF9C
:10485000FFF7FEBFFFF7FEBFFFF7FEBFFFF7FEBF8C
:10486000FFF7FEBFFFF7FEBFFFF7FEBFFFF7FEBF7C
:10487000FFF7FEBFFFF7FEBFFFF7FEBFFFF7FEBF6C
:10488000FFF7FEBFFFF7FEBFFFF7FEBFFFF7FEBF5C
:10489000FFF7FEBFFFF7A1BBFFF7FEBFFFF7FEBFAD
:1048A000FFF7FEBFFFF7FEBFFFF7FEBFFFF7FEBF3C
:1048B000FFF7FEBFFFF7FEBFFFF7FEBFFFF7FEBF2C
:1048C000FFF7FEBFFFF7FEBFFFF7FEBFFFF7FEBF1C
:1048D000FFF7FEBFFFF7FEBFFFF7FEBFFFF7FEBF0C
:1048E000FFF7FEBFFFF7FEBFFFF7FEBFFFF7FEBFFC
:1048F00000000000000004000000040000000800A8
:104900000100040001000100010080000100160008
:104910000100010080000100010040005000E80398
:1049200001001B7200001000010007000A000000D7
:104930000000000000000A0D000000000000000060
:104940000000000000000000000000000000000067
:1049500000000000FFFFFFFFFFFFFFFF000000005F
:104960000000000000000000000000000000000047
:104970000000000000000000000000000000000037
:10498000FFFFFFFFFFFF00000204010114320020BF
:10499000643200201432002014320020143200202F
:1049A0008D000020740000200000000000000000C6
:1049B00000000000000000000000000000000000F7
:1049C00000000000000000000000000001020304DD
:0C49D0000102030406070809020406089F
:04000005080047C5E3
:00000001FF
